{"contracts/NFTDutchAuction.sol":{"NFTDutchAuction":{"abi":[{"inputs":[{"internalType":"address","name":"_nftToken","type":"address"},{"internalType":"uint256","name":"_nftTokenId","type":"uint256"},{"internalType":"uint256","name":"_reservePrice","type":"uint256"},{"internalType":"uint256","name":"_numBlocksAuctionOpen","type":"uint256"},{"internalType":"uint256","name":"_offerPriceDecrement","type":"uint256"}],"stateMutability":"nonpayable","type":"constructor"},{"anonymous":false,"inputs":[],"name":"AuctionEnded","type":"event"},{"anonymous":false,"inputs":[{"indexed":false,"internalType":"address","name":"highestBidder","type":"address"},{"indexed":false,"internalType":"uint256","name":"highestBid","type":"uint256"}],"name":"AuctionFinalized","type":"event"},{"inputs":[],"name":"auctionEnded","outputs":[{"internalType":"bool","name":"","type":"bool"}],"stateMutability":"view","type":"function"},{"inputs":[],"name":"auctionFinalized","outputs":[{"internalType":"bool","name":"","type":"bool"}],"stateMutability":"view","type":"function"},{"inputs":[],"name":"bid","outputs":[],"stateMutability":"payable","type":"function"},{"inputs":[],"name":"currentPrice","outputs":[{"internalType":"uint256","name":"","type":"uint256"}],"stateMutability":"view","type":"function"},{"inputs":[],"name":"finalizeAuction","outputs":[],"stateMutability":"nonpayable","type":"function"},{"inputs":[],"name":"highestBidAmount","outputs":[{"internalType":"uint256","name":"","type":"uint256"}],"stateMutability":"view","type":"function"},{"inputs":[],"name":"highestBidderAddress","outputs":[{"internalType":"address","name":"","type":"address"}],"stateMutability":"view","type":"function"},{"inputs":[],"name":"initialPrice","outputs":[{"internalType":"uint256","name":"","type":"uint256"}],"stateMutability":"view","type":"function"},{"inputs":[],"name":"nftToken","outputs":[{"internalType":"contract IERC721","name":"","type":"address"}],"stateMutability":"view","type":"function"},{"inputs":[],"name":"nftTokenId","outputs":[{"internalType":"uint256","name":"","type":"uint256"}],"stateMutability":"view","type":"function"},{"inputs":[],"name":"numBlocksAuctionOpen","outputs":[{"internalType":"uint256","name":"","type":"uint256"}],"stateMutability":"view","type":"function"},{"inputs":[],"name":"offerPriceDecrement","outputs":[{"internalType":"uint256","name":"","type":"uint256"}],"stateMutability":"view","type":"function"},{"inputs":[{"internalType":"address","name":"","type":"address"},{"internalType":"address","name":"","type":"address"},{"internalType":"uint256","name":"","type":"uint256"},{"internalType":"bytes","name":"","type":"bytes"}],"name":"onERC721Received","outputs":[{"internalType":"bytes4","name":"","type":"bytes4"}],"stateMutability":"nonpayable","type":"function"},{"inputs":[],"name":"reservePrice","outputs":[{"internalType":"uint256","name":"","type":"uint256"}],"stateMutability":"view","type":"function"},{"inputs":[],"name":"seller","outputs":[{"internalType":"address","name":"","type":"address"}],"stateMutability":"view","type":"function"}],"evm":{"bytecode":{"linkReferences":{},"object":"6101406040523480156200001257600080fd5b506040516200157a3803806200157a8339818101604052810190620000389190620001fa565b3373ffffffffffffffffffffffffffffffffffffffff1660808173ffffffffffffffffffffffffffffffffffffffff16815250508473ffffffffffffffffffffffffffffffffffffffff1660a08173ffffffffffffffffffffffffffffffffffffffff16815250508360c081815250508260e081815250508161010081815250508061012081815250506200010b620000f4600161010051620000dc9190620002b1565b610120516200012560201b62000a051790919060201c565b60e0516200013d60201b62000a1b1790919060201c565b600081905550600054600181905550505050505062000372565b60008183620001359190620002ec565b905092915050565b600081836200014d919062000337565b905092915050565b600080fd5b600073ffffffffffffffffffffffffffffffffffffffff82169050919050565b600062000187826200015a565b9050919050565b62000199816200017a565b8114620001a557600080fd5b50565b600081519050620001b9816200018e565b92915050565b6000819050919050565b620001d481620001bf565b8114620001e057600080fd5b50565b600081519050620001f481620001c9565b92915050565b600080600080600060a0868803121562000219576200021862000155565b5b60006200022988828901620001a8565b95505060206200023c88828901620001e3565b94505060406200024f88828901620001e3565b93505060606200026288828901620001e3565b92505060806200027588828901620001e3565b9150509295509295909350565b7f4e487b7100000000000000000000000000000000000000000000000000000000600052601160045260246000fd5b6000620002be82620001bf565b9150620002cb83620001bf565b9250828203905081811115620002e657620002e562000282565b5b92915050565b6000620002f982620001bf565b91506200030683620001bf565b92508282026200031681620001bf565b9150828204841483151762000330576200032f62000282565b5b5092915050565b60006200034482620001bf565b91506200035183620001bf565b92508282019050808211156200036c576200036b62000282565b5b92915050565b60805160a05160c05160e051610100516101205161118e620003ec6000396000818161052501526106b4015260006106290152600081816105ae01526106d801526000818161064d01526108b10152600081816106900152610873015260008181610351015281816106fc015261093b015261118e6000f3fe6080604052600436106100e85760003560e01c8063864333741161008a578063d3642a8811610059578063d3642a88146102b7578063db2e1eed146102e2578063f77282ab1461030d578063f85fe8ad14610324576100e8565b8063864333741461020b5780638f9b4874146102365780639d1b464a14610261578063d06fcba81461028c576100e8565b80631998aeef116100c65780631998aeef146101805780631d0806ae1461018a5780633103ea62146101b55780637e830574146101e0576100e8565b806308551a53146100ed5780630bd8a1d014610118578063150b7a0214610143575b600080fd5b3480156100f957600080fd5b5061010261034f565b60405161010f9190610a88565b60405180910390f35b34801561012457600080fd5b5061012d610373565b60405161013a9190610abe565b60405180910390f35b34801561014f57600080fd5b5061016a60048036038101906101659190610c95565b610386565b6040516101779190610d53565b60405180910390f35b61018861039a565b005b34801561019657600080fd5b5061019f610621565b6040516101ac9190610d7d565b60405180910390f35b3480156101c157600080fd5b506101ca610627565b6040516101d79190610d7d565b60405180910390f35b3480156101ec57600080fd5b506101f561064b565b6040516102029190610d7d565b60405180910390f35b34801561021757600080fd5b5061022061066f565b60405161022d9190610abe565b60405180910390f35b34801561024257600080fd5b5061024b610682565b6040516102589190610d7d565b60405180910390f35b34801561026d57600080fd5b50610276610688565b6040516102839190610d7d565b60405180910390f35b34801561029857600080fd5b506102a161068e565b6040516102ae9190610df7565b60405180910390f35b3480156102c357600080fd5b506102cc6106b2565b6040516102d99190610d7d565b60405180910390f35b3480156102ee57600080fd5b506102f76106d6565b6040516103049190610d7d565b60405180910390f35b34801561031957600080fd5b506103226106fa565b005b34801561033057600080fd5b506103396109df565b6040516103469190610a88565b60405180910390f35b7f000000000000000000000000000000000000000000000000000000000000000081565b600360159054906101000a900460ff1681565b600063150b7a0260e01b9050949350505050565b600360149054906101000a900460ff16156103ea576040517f08c379a00000000000000000000000000000000000000000000000000000000081526004016103e190610e6f565b60405180910390fd5b60015434101561042f576040517f08c379a000000000000000000000000000000000000000000000000000000000815260040161042690610f01565b60405180910390fd5b60003490506000600154821115610456576001548261044e9190610f50565b905060015491505b60025482111561052057600060025411156104d757600360009054906101000a900473ffffffffffffffffffffffffffffffffffffffff1673ffffffffffffffffffffffffffffffffffffffff166108fc6002549081150290604051600060405180830381858888f193505050501580156104d5573d6000803e3d6000fd5b505b8160028190555033600360006101000a81548173ffffffffffffffffffffffffffffffffffffffff021916908373ffffffffffffffffffffffffffffffffffffffff1602179055505b6105557f0000000000000000000000000000000000000000000000000000000000000000600154610a3190919063ffffffff16565b60018190555060008111156105ac573373ffffffffffffffffffffffffffffffffffffffff166108fc829081150290604051600060405180830381858888f193505050501580156105aa573d6000803e3d6000fd5b505b7f00000000000000000000000000000000000000000000000000000000000000006001541161061d576001600360146101000a81548160ff0219169083151502179055507fa0e92984607195c326795751263414ee1074526323552e694c90ef2b99ae3f2960405160405180910390a15b5050565b60005481565b7f000000000000000000000000000000000000000000000000000000000000000081565b7f000000000000000000000000000000000000000000000000000000000000000081565b600360149054906101000a900460ff1681565b60025481565b60015481565b7f000000000000000000000000000000000000000000000000000000000000000081565b7f000000000000000000000000000000000000000000000000000000000000000081565b7f000000000000000000000000000000000000000000000000000000000000000081565b7f000000000000000000000000000000000000000000000000000000000000000073ffffffffffffffffffffffffffffffffffffffff163373ffffffffffffffffffffffffffffffffffffffff1614610788576040517f08c379a000000000000000000000000000000000000000000000000000000000815260040161077f90610ff6565b60405180910390fd5b600360149054906101000a900460ff16156107d8576040517f08c379a00000000000000000000000000000000000000000000000000000000081526004016107cf90610e6f565b60405180910390fd5b600360159054906101000a900460ff1615610828576040517f08c379a000000000000000000000000000000000000000000000000000000000815260040161081f90611062565b60405180910390fd5b600060025490506000600360009054906101000a900473ffffffffffffffffffffffffffffffffffffffff1690506001600360156101000a81548160ff0219169083151502179055507f000000000000000000000000000000000000000000000000000000000000000073ffffffffffffffffffffffffffffffffffffffff166342842e0e30837f00000000000000000000000000000000000000000000000000000000000000006040518463ffffffff1660e01b81526004016108ee93929190611082565b600060405180830381600087803b15801561090857600080fd5b505af115801561091c573d6000803e3d6000fd5b505050506000824761092e9190610f50565b905060008111156109a1577f000000000000000000000000000000000000000000000000000000000000000073ffffffffffffffffffffffffffffffffffffffff166108fc829081150290604051600060405180830381858888f1935050505015801561099f573d6000803e3d6000fd5b505b7f357afab190ee87fe0ef1c717f2728d2904d9e415a069d99f4d9382873cb3279d82846040516109d29291906110b9565b60405180910390a1505050565b600360009054906101000a900473ffffffffffffffffffffffffffffffffffffffff1681565b60008183610a1391906110e2565b905092915050565b60008183610a299190611124565b905092915050565b60008183610a3f9190610f50565b905092915050565b600073ffffffffffffffffffffffffffffffffffffffff82169050919050565b6000610a7282610a47565b9050919050565b610a8281610a67565b82525050565b6000602082019050610a9d6000830184610a79565b92915050565b60008115159050919050565b610ab881610aa3565b82525050565b6000602082019050610ad36000830184610aaf565b92915050565b6000604051905090565b600080fd5b600080fd5b610af681610a67565b8114610b0157600080fd5b50565b600081359050610b1381610aed565b92915050565b6000819050919050565b610b2c81610b19565b8114610b3757600080fd5b50565b600081359050610b4981610b23565b92915050565b600080fd5b600080fd5b6000601f19601f8301169050919050565b7f4e487b7100000000000000000000000000000000000000000000000000000000600052604160045260246000fd5b610ba282610b59565b810181811067ffffffffffffffff82111715610bc157610bc0610b6a565b5b80604052505050565b6000610bd4610ad9565b9050610be08282610b99565b919050565b600067ffffffffffffffff821115610c0057610bff610b6a565b5b610c0982610b59565b9050602081019050919050565b82818337600083830152505050565b6000610c38610c3384610be5565b610bca565b905082815260208101848484011115610c5457610c53610b54565b5b610c5f848285610c16565b509392505050565b600082601f830112610c7c57610c7b610b4f565b5b8135610c8c848260208601610c25565b91505092915050565b60008060008060808587031215610caf57610cae610ae3565b5b6000610cbd87828801610b04565b9450506020610cce87828801610b04565b9350506040610cdf87828801610b3a565b925050606085013567ffffffffffffffff811115610d0057610cff610ae8565b5b610d0c87828801610c67565b91505092959194509250565b60007fffffffff0000000000000000000000000000000000000000000000000000000082169050919050565b610d4d81610d18565b82525050565b6000602082019050610d686000830184610d44565b92915050565b610d7781610b19565b82525050565b6000602082019050610d926000830184610d6e565b92915050565b6000819050919050565b6000610dbd610db8610db384610a47565b610d98565b610a47565b9050919050565b6000610dcf82610da2565b9050919050565b6000610de182610dc4565b9050919050565b610df181610dd6565b82525050565b6000602082019050610e0c6000830184610de8565b92915050565b600082825260208201905092915050565b7f41756374696f6e2068617320656e646564000000000000000000000000000000600082015250565b6000610e59601183610e12565b9150610e6482610e23565b602082019050919050565b60006020820190508181036000830152610e8881610e4c565b9050919050565b7f42696420616d6f756e74206973206c657373207468616e20746865206375727260008201527f656e742070726963650000000000000000000000000000000000000000000000602082015250565b6000610eeb602983610e12565b9150610ef682610e8f565b604082019050919050565b60006020820190508181036000830152610f1a81610ede565b9050919050565b7f4e487b7100000000000000000000000000000000000000000000000000000000600052601160045260246000fd5b6000610f5b82610b19565b9150610f6683610b19565b9250828203905081811115610f7e57610f7d610f21565b5b92915050565b7f4f6e6c79207468652073656c6c65722063616e2063616c6c207468697320667560008201527f6e6374696f6e0000000000000000000000000000000000000000000000000000602082015250565b6000610fe0602683610e12565b9150610feb82610f84565b604082019050919050565b6000602082019050818103600083015261100f81610fd3565b9050919050565b7f41756374696f6e20616c72656164792066696e616c697a656400000000000000600082015250565b600061104c601983610e12565b915061105782611016565b602082019050919050565b6000602082019050818103600083015261107b8161103f565b9050919050565b60006060820190506110976000830186610a79565b6110a46020830185610a79565b6110b16040830184610d6e565b949350505050565b60006040820190506110ce6000830185610a79565b6110db6020830184610d6e565b9392505050565b60006110ed82610b19565b91506110f883610b19565b925082820261110681610b19565b9150828204841483151761111d5761111c610f21565b5b5092915050565b600061112f82610b19565b915061113a83610b19565b925082820190508082111561115257611151610f21565b5b9291505056fea2646970667358221220b7bce25e287cb14aa8c448d0fe7f1d1a2656a1401c66f620969ad3324041353864736f6c63430008120033","opcodes":"PUSH2 0x140 PUSH1 0x40 MSTORE CALLVALUE DUP1 ISZERO PUSH3 0x12 JUMPI PUSH1 0x0 DUP1 REVERT JUMPDEST POP PUSH1 0x40 MLOAD PUSH3 0x157A CODESIZE SUB DUP1 PUSH3 0x157A DUP4 CODECOPY DUP2 DUP2 ADD PUSH1 0x40 MSTORE DUP2 ADD SWAP1 PUSH3 0x38 SWAP2 SWAP1 PUSH3 0x1FA JUMP JUMPDEST CALLER PUSH20 0xFFFFFFFFFFFFFFFFFFFFFFFFFFFFFFFFFFFFFFFF AND PUSH1 0x80 DUP2 PUSH20 0xFFFFFFFFFFFFFFFFFFFFFFFFFFFFFFFFFFFFFFFF AND DUP2 MSTORE POP POP DUP5 PUSH20 0xFFFFFFFFFFFFFFFFFFFFFFFFFFFFFFFFFFFFFFFF AND PUSH1 0xA0 DUP2 PUSH20 0xFFFFFFFFFFFFFFFFFFFFFFFFFFFFFFFFFFFFFFFF AND DUP2 MSTORE POP POP DUP4 PUSH1 0xC0 DUP2 DUP2 MSTORE POP POP DUP3 PUSH1 0xE0 DUP2 DUP2 MSTORE POP POP DUP2 PUSH2 0x100 DUP2 DUP2 MSTORE POP POP DUP1 PUSH2 0x120 DUP2 DUP2 MSTORE POP POP PUSH3 0x10B PUSH3 0xF4 PUSH1 0x1 PUSH2 0x100 MLOAD PUSH3 0xDC SWAP2 SWAP1 PUSH3 0x2B1 JUMP JUMPDEST PUSH2 0x120 MLOAD PUSH3 0x125 PUSH1 0x20 SHL PUSH3 0xA05 OR SWAP1 SWAP2 SWAP1 PUSH1 0x20 SHR JUMP JUMPDEST PUSH1 0xE0 MLOAD PUSH3 0x13D PUSH1 0x20 SHL PUSH3 0xA1B OR SWAP1 SWAP2 SWAP1 PUSH1 0x20 SHR JUMP JUMPDEST PUSH1 0x0 DUP2 SWAP1 SSTORE POP PUSH1 0x0 SLOAD PUSH1 0x1 DUP2 SWAP1 SSTORE POP POP POP POP POP POP PUSH3 0x372 JUMP JUMPDEST PUSH1 0x0 DUP2 DUP4 PUSH3 0x135 SWAP2 SWAP1 PUSH3 0x2EC JUMP JUMPDEST SWAP1 POP SWAP3 SWAP2 POP POP JUMP JUMPDEST PUSH1 0x0 DUP2 DUP4 PUSH3 0x14D SWAP2 SWAP1 PUSH3 0x337 JUMP JUMPDEST SWAP1 POP SWAP3 SWAP2 POP POP JUMP JUMPDEST PUSH1 0x0 DUP1 REVERT JUMPDEST PUSH1 0x0 PUSH20 0xFFFFFFFFFFFFFFFFFFFFFFFFFFFFFFFFFFFFFFFF DUP3 AND SWAP1 POP SWAP2 SWAP1 POP JUMP JUMPDEST PUSH1 0x0 PUSH3 0x187 DUP3 PUSH3 0x15A JUMP JUMPDEST SWAP1 POP SWAP2 SWAP1 POP JUMP JUMPDEST PUSH3 0x199 DUP2 PUSH3 0x17A JUMP JUMPDEST DUP2 EQ PUSH3 0x1A5 JUMPI PUSH1 0x0 DUP1 REVERT JUMPDEST POP JUMP JUMPDEST PUSH1 0x0 DUP2 MLOAD SWAP1 POP PUSH3 0x1B9 DUP2 PUSH3 0x18E JUMP JUMPDEST SWAP3 SWAP2 POP POP JUMP JUMPDEST PUSH1 0x0 DUP2 SWAP1 POP SWAP2 SWAP1 POP JUMP JUMPDEST PUSH3 0x1D4 DUP2 PUSH3 0x1BF JUMP JUMPDEST DUP2 EQ PUSH3 0x1E0 JUMPI PUSH1 0x0 DUP1 REVERT JUMPDEST POP JUMP JUMPDEST PUSH1 0x0 DUP2 MLOAD SWAP1 POP PUSH3 0x1F4 DUP2 PUSH3 0x1C9 JUMP JUMPDEST SWAP3 SWAP2 POP POP JUMP JUMPDEST PUSH1 0x0 DUP1 PUSH1 0x0 DUP1 PUSH1 0x0 PUSH1 0xA0 DUP7 DUP9 SUB SLT ISZERO PUSH3 0x219 JUMPI PUSH3 0x218 PUSH3 0x155 JUMP JUMPDEST JUMPDEST PUSH1 0x0 PUSH3 0x229 DUP9 DUP3 DUP10 ADD PUSH3 0x1A8 JUMP JUMPDEST SWAP6 POP POP PUSH1 0x20 PUSH3 0x23C DUP9 DUP3 DUP10 ADD PUSH3 0x1E3 JUMP JUMPDEST SWAP5 POP POP PUSH1 0x40 PUSH3 0x24F DUP9 DUP3 DUP10 ADD PUSH3 0x1E3 JUMP JUMPDEST SWAP4 POP POP PUSH1 0x60 PUSH3 0x262 DUP9 DUP3 DUP10 ADD PUSH3 0x1E3 JUMP JUMPDEST SWAP3 POP POP PUSH1 0x80 PUSH3 0x275 DUP9 DUP3 DUP10 ADD PUSH3 0x1E3 JUMP JUMPDEST SWAP2 POP POP SWAP3 SWAP6 POP SWAP3 SWAP6 SWAP1 SWAP4 POP JUMP JUMPDEST PUSH32 0x4E487B7100000000000000000000000000000000000000000000000000000000 PUSH1 0x0 MSTORE PUSH1 0x11 PUSH1 0x4 MSTORE PUSH1 0x24 PUSH1 0x0 REVERT JUMPDEST PUSH1 0x0 PUSH3 0x2BE DUP3 PUSH3 0x1BF JUMP JUMPDEST SWAP2 POP PUSH3 0x2CB DUP4 PUSH3 0x1BF JUMP JUMPDEST SWAP3 POP DUP3 DUP3 SUB SWAP1 POP DUP2 DUP2 GT ISZERO PUSH3 0x2E6 JUMPI PUSH3 0x2E5 PUSH3 0x282 JUMP JUMPDEST JUMPDEST SWAP3 SWAP2 POP POP JUMP JUMPDEST PUSH1 0x0 PUSH3 0x2F9 DUP3 PUSH3 0x1BF JUMP JUMPDEST SWAP2 POP PUSH3 0x306 DUP4 PUSH3 0x1BF JUMP JUMPDEST SWAP3 POP DUP3 DUP3 MUL PUSH3 0x316 DUP2 PUSH3 0x1BF JUMP JUMPDEST SWAP2 POP DUP3 DUP3 DIV DUP5 EQ DUP4 ISZERO OR PUSH3 0x330 JUMPI PUSH3 0x32F PUSH3 0x282 JUMP JUMPDEST JUMPDEST POP SWAP3 SWAP2 POP POP JUMP JUMPDEST PUSH1 0x0 PUSH3 0x344 DUP3 PUSH3 0x1BF JUMP JUMPDEST SWAP2 POP PUSH3 0x351 DUP4 PUSH3 0x1BF JUMP JUMPDEST SWAP3 POP DUP3 DUP3 ADD SWAP1 POP DUP1 DUP3 GT ISZERO PUSH3 0x36C JUMPI PUSH3 0x36B PUSH3 0x282 JUMP JUMPDEST JUMPDEST SWAP3 SWAP2 POP POP JUMP JUMPDEST PUSH1 0x80 MLOAD PUSH1 0xA0 MLOAD PUSH1 0xC0 MLOAD PUSH1 0xE0 MLOAD PUSH2 0x100 MLOAD PUSH2 0x120 MLOAD PUSH2 0x118E PUSH3 0x3EC PUSH1 0x0 CODECOPY PUSH1 0x0 DUP2 DUP2 PUSH2 0x525 ADD MSTORE PUSH2 0x6B4 ADD MSTORE PUSH1 0x0 PUSH2 0x629 ADD MSTORE PUSH1 0x0 DUP2 DUP2 PUSH2 0x5AE ADD MSTORE PUSH2 0x6D8 ADD MSTORE PUSH1 0x0 DUP2 DUP2 PUSH2 0x64D ADD MSTORE PUSH2 0x8B1 ADD MSTORE PUSH1 0x0 DUP2 DUP2 PUSH2 0x690 ADD MSTORE PUSH2 0x873 ADD MSTORE PUSH1 0x0 DUP2 DUP2 PUSH2 0x351 ADD MSTORE DUP2 DUP2 PUSH2 0x6FC ADD MSTORE PUSH2 0x93B ADD MSTORE PUSH2 0x118E PUSH1 0x0 RETURN INVALID PUSH1 0x80 PUSH1 0x40 MSTORE PUSH1 0x4 CALLDATASIZE LT PUSH2 0xE8 JUMPI PUSH1 0x0 CALLDATALOAD PUSH1 0xE0 SHR DUP1 PUSH4 0x86433374 GT PUSH2 0x8A JUMPI DUP1 PUSH4 0xD3642A88 GT PUSH2 0x59 JUMPI DUP1 PUSH4 0xD3642A88 EQ PUSH2 0x2B7 JUMPI DUP1 PUSH4 0xDB2E1EED EQ PUSH2 0x2E2 JUMPI DUP1 PUSH4 0xF77282AB EQ PUSH2 0x30D JUMPI DUP1 PUSH4 0xF85FE8AD EQ PUSH2 0x324 JUMPI PUSH2 0xE8 JUMP JUMPDEST DUP1 PUSH4 0x86433374 EQ PUSH2 0x20B JUMPI DUP1 PUSH4 0x8F9B4874 EQ PUSH2 0x236 JUMPI DUP1 PUSH4 0x9D1B464A EQ PUSH2 0x261 JUMPI DUP1 PUSH4 0xD06FCBA8 EQ PUSH2 0x28C JUMPI PUSH2 0xE8 JUMP JUMPDEST DUP1 PUSH4 0x1998AEEF GT PUSH2 0xC6 JUMPI DUP1 PUSH4 0x1998AEEF EQ PUSH2 0x180 JUMPI DUP1 PUSH4 0x1D0806AE EQ PUSH2 0x18A JUMPI DUP1 PUSH4 0x3103EA62 EQ PUSH2 0x1B5 JUMPI DUP1 PUSH4 0x7E830574 EQ PUSH2 0x1E0 JUMPI PUSH2 0xE8 JUMP JUMPDEST DUP1 PUSH4 0x8551A53 EQ PUSH2 0xED JUMPI DUP1 PUSH4 0xBD8A1D0 EQ PUSH2 0x118 JUMPI DUP1 PUSH4 0x150B7A02 EQ PUSH2 0x143 JUMPI JUMPDEST PUSH1 0x0 DUP1 REVERT JUMPDEST CALLVALUE DUP1 ISZERO PUSH2 0xF9 JUMPI PUSH1 0x0 DUP1 REVERT JUMPDEST POP PUSH2 0x102 PUSH2 0x34F JUMP JUMPDEST PUSH1 0x40 MLOAD PUSH2 0x10F SWAP2 SWAP1 PUSH2 0xA88 JUMP JUMPDEST PUSH1 0x40 MLOAD DUP1 SWAP2 SUB SWAP1 RETURN JUMPDEST CALLVALUE DUP1 ISZERO PUSH2 0x124 JUMPI PUSH1 0x0 DUP1 REVERT JUMPDEST POP PUSH2 0x12D PUSH2 0x373 JUMP JUMPDEST PUSH1 0x40 MLOAD PUSH2 0x13A SWAP2 SWAP1 PUSH2 0xABE JUMP JUMPDEST PUSH1 0x40 MLOAD DUP1 SWAP2 SUB SWAP1 RETURN JUMPDEST CALLVALUE DUP1 ISZERO PUSH2 0x14F JUMPI PUSH1 0x0 DUP1 REVERT JUMPDEST POP PUSH2 0x16A PUSH1 0x4 DUP1 CALLDATASIZE SUB DUP2 ADD SWAP1 PUSH2 0x165 SWAP2 SWAP1 PUSH2 0xC95 JUMP JUMPDEST PUSH2 0x386 JUMP JUMPDEST PUSH1 0x40 MLOAD PUSH2 0x177 SWAP2 SWAP1 PUSH2 0xD53 JUMP JUMPDEST PUSH1 0x40 MLOAD DUP1 SWAP2 SUB SWAP1 RETURN JUMPDEST PUSH2 0x188 PUSH2 0x39A JUMP JUMPDEST STOP JUMPDEST CALLVALUE DUP1 ISZERO PUSH2 0x196 JUMPI PUSH1 0x0 DUP1 REVERT JUMPDEST POP PUSH2 0x19F PUSH2 0x621 JUMP JUMPDEST PUSH1 0x40 MLOAD PUSH2 0x1AC SWAP2 SWAP1 PUSH2 0xD7D JUMP JUMPDEST PUSH1 0x40 MLOAD DUP1 SWAP2 SUB SWAP1 RETURN JUMPDEST CALLVALUE DUP1 ISZERO PUSH2 0x1C1 JUMPI PUSH1 0x0 DUP1 REVERT JUMPDEST POP PUSH2 0x1CA PUSH2 0x627 JUMP JUMPDEST PUSH1 0x40 MLOAD PUSH2 0x1D7 SWAP2 SWAP1 PUSH2 0xD7D JUMP JUMPDEST PUSH1 0x40 MLOAD DUP1 SWAP2 SUB SWAP1 RETURN JUMPDEST CALLVALUE DUP1 ISZERO PUSH2 0x1EC JUMPI PUSH1 0x0 DUP1 REVERT JUMPDEST POP PUSH2 0x1F5 PUSH2 0x64B JUMP JUMPDEST PUSH1 0x40 MLOAD PUSH2 0x202 SWAP2 SWAP1 PUSH2 0xD7D JUMP JUMPDEST PUSH1 0x40 MLOAD DUP1 SWAP2 SUB SWAP1 RETURN JUMPDEST CALLVALUE DUP1 ISZERO PUSH2 0x217 JUMPI PUSH1 0x0 DUP1 REVERT JUMPDEST POP PUSH2 0x220 PUSH2 0x66F JUMP JUMPDEST PUSH1 0x40 MLOAD PUSH2 0x22D SWAP2 SWAP1 PUSH2 0xABE JUMP JUMPDEST PUSH1 0x40 MLOAD DUP1 SWAP2 SUB SWAP1 RETURN JUMPDEST CALLVALUE DUP1 ISZERO PUSH2 0x242 JUMPI PUSH1 0x0 DUP1 REVERT JUMPDEST POP PUSH2 0x24B PUSH2 0x682 JUMP JUMPDEST PUSH1 0x40 MLOAD PUSH2 0x258 SWAP2 SWAP1 PUSH2 0xD7D JUMP JUMPDEST PUSH1 0x40 MLOAD DUP1 SWAP2 SUB SWAP1 RETURN JUMPDEST CALLVALUE DUP1 ISZERO PUSH2 0x26D JUMPI PUSH1 0x0 DUP1 REVERT JUMPDEST POP PUSH2 0x276 PUSH2 0x688 JUMP JUMPDEST PUSH1 0x40 MLOAD PUSH2 0x283 SWAP2 SWAP1 PUSH2 0xD7D JUMP JUMPDEST PUSH1 0x40 MLOAD DUP1 SWAP2 SUB SWAP1 RETURN JUMPDEST CALLVALUE DUP1 ISZERO PUSH2 0x298 JUMPI PUSH1 0x0 DUP1 REVERT JUMPDEST POP PUSH2 0x2A1 PUSH2 0x68E JUMP JUMPDEST PUSH1 0x40 MLOAD PUSH2 0x2AE SWAP2 SWAP1 PUSH2 0xDF7 JUMP JUMPDEST PUSH1 0x40 MLOAD DUP1 SWAP2 SUB SWAP1 RETURN JUMPDEST CALLVALUE DUP1 ISZERO PUSH2 0x2C3 JUMPI PUSH1 0x0 DUP1 REVERT JUMPDEST POP PUSH2 0x2CC PUSH2 0x6B2 JUMP JUMPDEST PUSH1 0x40 MLOAD PUSH2 0x2D9 SWAP2 SWAP1 PUSH2 0xD7D JUMP JUMPDEST PUSH1 0x40 MLOAD DUP1 SWAP2 SUB SWAP1 RETURN JUMPDEST CALLVALUE DUP1 ISZERO PUSH2 0x2EE JUMPI PUSH1 0x0 DUP1 REVERT JUMPDEST POP PUSH2 0x2F7 PUSH2 0x6D6 JUMP JUMPDEST PUSH1 0x40 MLOAD PUSH2 0x304 SWAP2 SWAP1 PUSH2 0xD7D JUMP JUMPDEST PUSH1 0x40 MLOAD DUP1 SWAP2 SUB SWAP1 RETURN JUMPDEST CALLVALUE DUP1 ISZERO PUSH2 0x319 JUMPI PUSH1 0x0 DUP1 REVERT JUMPDEST POP PUSH2 0x322 PUSH2 0x6FA JUMP JUMPDEST STOP JUMPDEST CALLVALUE DUP1 ISZERO PUSH2 0x330 JUMPI PUSH1 0x0 DUP1 REVERT JUMPDEST POP PUSH2 0x339 PUSH2 0x9DF JUMP JUMPDEST PUSH1 0x40 MLOAD PUSH2 0x346 SWAP2 SWAP1 PUSH2 0xA88 JUMP JUMPDEST PUSH1 0x40 MLOAD DUP1 SWAP2 SUB SWAP1 RETURN JUMPDEST PUSH32 0x0 DUP2 JUMP JUMPDEST PUSH1 0x3 PUSH1 0x15 SWAP1 SLOAD SWAP1 PUSH2 0x100 EXP SWAP1 DIV PUSH1 0xFF AND DUP2 JUMP JUMPDEST PUSH1 0x0 PUSH4 0x150B7A02 PUSH1 0xE0 SHL SWAP1 POP SWAP5 SWAP4 POP POP POP POP JUMP JUMPDEST PUSH1 0x3 PUSH1 0x14 SWAP1 SLOAD SWAP1 PUSH2 0x100 EXP SWAP1 DIV PUSH1 0xFF AND ISZERO PUSH2 0x3EA JUMPI PUSH1 0x40 MLOAD PUSH32 0x8C379A000000000000000000000000000000000000000000000000000000000 DUP2 MSTORE PUSH1 0x4 ADD PUSH2 0x3E1 SWAP1 PUSH2 0xE6F JUMP JUMPDEST PUSH1 0x40 MLOAD DUP1 SWAP2 SUB SWAP1 REVERT JUMPDEST PUSH1 0x1 SLOAD CALLVALUE LT ISZERO PUSH2 0x42F JUMPI PUSH1 0x40 MLOAD PUSH32 0x8C379A000000000000000000000000000000000000000000000000000000000 DUP2 MSTORE PUSH1 0x4 ADD PUSH2 0x426 SWAP1 PUSH2 0xF01 JUMP JUMPDEST PUSH1 0x40 MLOAD DUP1 SWAP2 SUB SWAP1 REVERT JUMPDEST PUSH1 0x0 CALLVALUE SWAP1 POP PUSH1 0x0 PUSH1 0x1 SLOAD DUP3 GT ISZERO PUSH2 0x456 JUMPI PUSH1 0x1 SLOAD DUP3 PUSH2 0x44E SWAP2 SWAP1 PUSH2 0xF50 JUMP JUMPDEST SWAP1 POP PUSH1 0x1 SLOAD SWAP2 POP JUMPDEST PUSH1 0x2 SLOAD DUP3 GT ISZERO PUSH2 0x520 JUMPI PUSH1 0x0 PUSH1 0x2 SLOAD GT ISZERO PUSH2 0x4D7 JUMPI PUSH1 0x3 PUSH1 0x0 SWAP1 SLOAD SWAP1 PUSH2 0x100 EXP SWAP1 DIV PUSH20 0xFFFFFFFFFFFFFFFFFFFFFFFFFFFFFFFFFFFFFFFF AND PUSH20 0xFFFFFFFFFFFFFFFFFFFFFFFFFFFFFFFFFFFFFFFF AND PUSH2 0x8FC PUSH1 0x2 SLOAD SWAP1 DUP2 ISZERO MUL SWAP1 PUSH1 0x40 MLOAD PUSH1 0x0 PUSH1 0x40 MLOAD DUP1 DUP4 SUB DUP2 DUP6 DUP9 DUP9 CALL SWAP4 POP POP POP POP ISZERO DUP1 ISZERO PUSH2 0x4D5 JUMPI RETURNDATASIZE PUSH1 0x0 DUP1 RETURNDATACOPY RETURNDATASIZE PUSH1 0x0 REVERT JUMPDEST POP JUMPDEST DUP2 PUSH1 0x2 DUP2 SWAP1 SSTORE POP CALLER PUSH1 0x3 PUSH1 0x0 PUSH2 0x100 EXP DUP2 SLOAD DUP2 PUSH20 0xFFFFFFFFFFFFFFFFFFFFFFFFFFFFFFFFFFFFFFFF MUL NOT AND SWAP1 DUP4 PUSH20 0xFFFFFFFFFFFFFFFFFFFFFFFFFFFFFFFFFFFFFFFF AND MUL OR SWAP1 SSTORE POP JUMPDEST PUSH2 0x555 PUSH32 0x0 PUSH1 0x1 SLOAD PUSH2 0xA31 SWAP1 SWAP2 SWAP1 PUSH4 0xFFFFFFFF AND JUMP JUMPDEST PUSH1 0x1 DUP2 SWAP1 SSTORE POP PUSH1 0x0 DUP2 GT ISZERO PUSH2 0x5AC JUMPI CALLER PUSH20 0xFFFFFFFFFFFFFFFFFFFFFFFFFFFFFFFFFFFFFFFF AND PUSH2 0x8FC DUP3 SWAP1 DUP2 ISZERO MUL SWAP1 PUSH1 0x40 MLOAD PUSH1 0x0 PUSH1 0x40 MLOAD DUP1 DUP4 SUB DUP2 DUP6 DUP9 DUP9 CALL SWAP4 POP POP POP POP ISZERO DUP1 ISZERO PUSH2 0x5AA JUMPI RETURNDATASIZE PUSH1 0x0 DUP1 RETURNDATACOPY RETURNDATASIZE PUSH1 0x0 REVERT JUMPDEST POP JUMPDEST PUSH32 0x0 PUSH1 0x1 SLOAD GT PUSH2 0x61D JUMPI PUSH1 0x1 PUSH1 0x3 PUSH1 0x14 PUSH2 0x100 EXP DUP2 SLOAD DUP2 PUSH1 0xFF MUL NOT AND SWAP1 DUP4 ISZERO ISZERO MUL OR SWAP1 SSTORE POP PUSH32 0xA0E92984607195C326795751263414EE1074526323552E694C90EF2B99AE3F29 PUSH1 0x40 MLOAD PUSH1 0x40 MLOAD DUP1 SWAP2 SUB SWAP1 LOG1 JUMPDEST POP POP JUMP JUMPDEST PUSH1 0x0 SLOAD DUP2 JUMP JUMPDEST PUSH32 0x0 DUP2 JUMP JUMPDEST PUSH32 0x0 DUP2 JUMP JUMPDEST PUSH1 0x3 PUSH1 0x14 SWAP1 SLOAD SWAP1 PUSH2 0x100 EXP SWAP1 DIV PUSH1 0xFF AND DUP2 JUMP JUMPDEST PUSH1 0x2 SLOAD DUP2 JUMP JUMPDEST PUSH1 0x1 SLOAD DUP2 JUMP JUMPDEST PUSH32 0x0 DUP2 JUMP JUMPDEST PUSH32 0x0 DUP2 JUMP JUMPDEST PUSH32 0x0 DUP2 JUMP JUMPDEST PUSH32 0x0 PUSH20 0xFFFFFFFFFFFFFFFFFFFFFFFFFFFFFFFFFFFFFFFF AND CALLER PUSH20 0xFFFFFFFFFFFFFFFFFFFFFFFFFFFFFFFFFFFFFFFF AND EQ PUSH2 0x788 JUMPI PUSH1 0x40 MLOAD PUSH32 0x8C379A000000000000000000000000000000000000000000000000000000000 DUP2 MSTORE PUSH1 0x4 ADD PUSH2 0x77F SWAP1 PUSH2 0xFF6 JUMP JUMPDEST PUSH1 0x40 MLOAD DUP1 SWAP2 SUB SWAP1 REVERT JUMPDEST PUSH1 0x3 PUSH1 0x14 SWAP1 SLOAD SWAP1 PUSH2 0x100 EXP SWAP1 DIV PUSH1 0xFF AND ISZERO PUSH2 0x7D8 JUMPI PUSH1 0x40 MLOAD PUSH32 0x8C379A000000000000000000000000000000000000000000000000000000000 DUP2 MSTORE PUSH1 0x4 ADD PUSH2 0x7CF SWAP1 PUSH2 0xE6F JUMP JUMPDEST PUSH1 0x40 MLOAD DUP1 SWAP2 SUB SWAP1 REVERT JUMPDEST PUSH1 0x3 PUSH1 0x15 SWAP1 SLOAD SWAP1 PUSH2 0x100 EXP SWAP1 DIV PUSH1 0xFF AND ISZERO PUSH2 0x828 JUMPI PUSH1 0x40 MLOAD PUSH32 0x8C379A000000000000000000000000000000000000000000000000000000000 DUP2 MSTORE PUSH1 0x4 ADD PUSH2 0x81F SWAP1 PUSH2 0x1062 JUMP JUMPDEST PUSH1 0x40 MLOAD DUP1 SWAP2 SUB SWAP1 REVERT JUMPDEST PUSH1 0x0 PUSH1 0x2 SLOAD SWAP1 POP PUSH1 0x0 PUSH1 0x3 PUSH1 0x0 SWAP1 SLOAD SWAP1 PUSH2 0x100 EXP SWAP1 DIV PUSH20 0xFFFFFFFFFFFFFFFFFFFFFFFFFFFFFFFFFFFFFFFF AND SWAP1 POP PUSH1 0x1 PUSH1 0x3 PUSH1 0x15 PUSH2 0x100 EXP DUP2 SLOAD DUP2 PUSH1 0xFF MUL NOT AND SWAP1 DUP4 ISZERO ISZERO MUL OR SWAP1 SSTORE POP PUSH32 0x0 PUSH20 0xFFFFFFFFFFFFFFFFFFFFFFFFFFFFFFFFFFFFFFFF AND PUSH4 0x42842E0E ADDRESS DUP4 PUSH32 0x0 PUSH1 0x40 MLOAD DUP5 PUSH4 0xFFFFFFFF AND PUSH1 0xE0 SHL DUP2 MSTORE PUSH1 0x4 ADD PUSH2 0x8EE SWAP4 SWAP3 SWAP2 SWAP1 PUSH2 0x1082 JUMP JUMPDEST PUSH1 0x0 PUSH1 0x40 MLOAD DUP1 DUP4 SUB DUP2 PUSH1 0x0 DUP8 DUP1 EXTCODESIZE ISZERO DUP1 ISZERO PUSH2 0x908 JUMPI PUSH1 0x0 DUP1 REVERT JUMPDEST POP GAS CALL ISZERO DUP1 ISZERO PUSH2 0x91C JUMPI RETURNDATASIZE PUSH1 0x0 DUP1 RETURNDATACOPY RETURNDATASIZE PUSH1 0x0 REVERT JUMPDEST POP POP POP POP PUSH1 0x0 DUP3 SELFBALANCE PUSH2 0x92E SWAP2 SWAP1 PUSH2 0xF50 JUMP JUMPDEST SWAP1 POP PUSH1 0x0 DUP2 GT ISZERO PUSH2 0x9A1 JUMPI PUSH32 0x0 PUSH20 0xFFFFFFFFFFFFFFFFFFFFFFFFFFFFFFFFFFFFFFFF AND PUSH2 0x8FC DUP3 SWAP1 DUP2 ISZERO MUL SWAP1 PUSH1 0x40 MLOAD PUSH1 0x0 PUSH1 0x40 MLOAD DUP1 DUP4 SUB DUP2 DUP6 DUP9 DUP9 CALL SWAP4 POP POP POP POP ISZERO DUP1 ISZERO PUSH2 0x99F JUMPI RETURNDATASIZE PUSH1 0x0 DUP1 RETURNDATACOPY RETURNDATASIZE PUSH1 0x0 REVERT JUMPDEST POP JUMPDEST PUSH32 0x357AFAB190EE87FE0EF1C717F2728D2904D9E415A069D99F4D9382873CB3279D DUP3 DUP5 PUSH1 0x40 MLOAD PUSH2 0x9D2 SWAP3 SWAP2 SWAP1 PUSH2 0x10B9 JUMP JUMPDEST PUSH1 0x40 MLOAD DUP1 SWAP2 SUB SWAP1 LOG1 POP POP POP JUMP JUMPDEST PUSH1 0x3 PUSH1 0x0 SWAP1 SLOAD SWAP1 PUSH2 0x100 EXP SWAP1 DIV PUSH20 0xFFFFFFFFFFFFFFFFFFFFFFFFFFFFFFFFFFFFFFFF AND DUP2 JUMP JUMPDEST PUSH1 0x0 DUP2 DUP4 PUSH2 0xA13 SWAP2 SWAP1 PUSH2 0x10E2 JUMP JUMPDEST SWAP1 POP SWAP3 SWAP2 POP POP JUMP JUMPDEST PUSH1 0x0 DUP2 DUP4 PUSH2 0xA29 SWAP2 SWAP1 PUSH2 0x1124 JUMP JUMPDEST SWAP1 POP SWAP3 SWAP2 POP POP JUMP JUMPDEST PUSH1 0x0 DUP2 DUP4 PUSH2 0xA3F SWAP2 SWAP1 PUSH2 0xF50 JUMP JUMPDEST SWAP1 POP SWAP3 SWAP2 POP POP JUMP JUMPDEST PUSH1 0x0 PUSH20 0xFFFFFFFFFFFFFFFFFFFFFFFFFFFFFFFFFFFFFFFF DUP3 AND SWAP1 POP SWAP2 SWAP1 POP JUMP JUMPDEST PUSH1 0x0 PUSH2 0xA72 DUP3 PUSH2 0xA47 JUMP JUMPDEST SWAP1 POP SWAP2 SWAP1 POP JUMP JUMPDEST PUSH2 0xA82 DUP2 PUSH2 0xA67 JUMP JUMPDEST DUP3 MSTORE POP POP JUMP JUMPDEST PUSH1 0x0 PUSH1 0x20 DUP3 ADD SWAP1 POP PUSH2 0xA9D PUSH1 0x0 DUP4 ADD DUP5 PUSH2 0xA79 JUMP JUMPDEST SWAP3 SWAP2 POP POP JUMP JUMPDEST PUSH1 0x0 DUP2 ISZERO ISZERO SWAP1 POP SWAP2 SWAP1 POP JUMP JUMPDEST PUSH2 0xAB8 DUP2 PUSH2 0xAA3 JUMP JUMPDEST DUP3 MSTORE POP POP JUMP JUMPDEST PUSH1 0x0 PUSH1 0x20 DUP3 ADD SWAP1 POP PUSH2 0xAD3 PUSH1 0x0 DUP4 ADD DUP5 PUSH2 0xAAF JUMP JUMPDEST SWAP3 SWAP2 POP POP JUMP JUMPDEST PUSH1 0x0 PUSH1 0x40 MLOAD SWAP1 POP SWAP1 JUMP JUMPDEST PUSH1 0x0 DUP1 REVERT JUMPDEST PUSH1 0x0 DUP1 REVERT JUMPDEST PUSH2 0xAF6 DUP2 PUSH2 0xA67 JUMP JUMPDEST DUP2 EQ PUSH2 0xB01 JUMPI PUSH1 0x0 DUP1 REVERT JUMPDEST POP JUMP JUMPDEST PUSH1 0x0 DUP2 CALLDATALOAD SWAP1 POP PUSH2 0xB13 DUP2 PUSH2 0xAED JUMP JUMPDEST SWAP3 SWAP2 POP POP JUMP JUMPDEST PUSH1 0x0 DUP2 SWAP1 POP SWAP2 SWAP1 POP JUMP JUMPDEST PUSH2 0xB2C DUP2 PUSH2 0xB19 JUMP JUMPDEST DUP2 EQ PUSH2 0xB37 JUMPI PUSH1 0x0 DUP1 REVERT JUMPDEST POP JUMP JUMPDEST PUSH1 0x0 DUP2 CALLDATALOAD SWAP1 POP PUSH2 0xB49 DUP2 PUSH2 0xB23 JUMP JUMPDEST SWAP3 SWAP2 POP POP JUMP JUMPDEST PUSH1 0x0 DUP1 REVERT JUMPDEST PUSH1 0x0 DUP1 REVERT JUMPDEST PUSH1 0x0 PUSH1 0x1F NOT PUSH1 0x1F DUP4 ADD AND SWAP1 POP SWAP2 SWAP1 POP JUMP JUMPDEST PUSH32 0x4E487B7100000000000000000000000000000000000000000000000000000000 PUSH1 0x0 MSTORE PUSH1 0x41 PUSH1 0x4 MSTORE PUSH1 0x24 PUSH1 0x0 REVERT JUMPDEST PUSH2 0xBA2 DUP3 PUSH2 0xB59 JUMP JUMPDEST DUP2 ADD DUP2 DUP2 LT PUSH8 0xFFFFFFFFFFFFFFFF DUP3 GT OR ISZERO PUSH2 0xBC1 JUMPI PUSH2 0xBC0 PUSH2 0xB6A JUMP JUMPDEST JUMPDEST DUP1 PUSH1 0x40 MSTORE POP POP POP JUMP JUMPDEST PUSH1 0x0 PUSH2 0xBD4 PUSH2 0xAD9 JUMP JUMPDEST SWAP1 POP PUSH2 0xBE0 DUP3 DUP3 PUSH2 0xB99 JUMP JUMPDEST SWAP2 SWAP1 POP JUMP JUMPDEST PUSH1 0x0 PUSH8 0xFFFFFFFFFFFFFFFF DUP3 GT ISZERO PUSH2 0xC00 JUMPI PUSH2 0xBFF PUSH2 0xB6A JUMP JUMPDEST JUMPDEST PUSH2 0xC09 DUP3 PUSH2 0xB59 JUMP JUMPDEST SWAP1 POP PUSH1 0x20 DUP2 ADD SWAP1 POP SWAP2 SWAP1 POP JUMP JUMPDEST DUP3 DUP2 DUP4 CALLDATACOPY PUSH1 0x0 DUP4 DUP4 ADD MSTORE POP POP POP JUMP JUMPDEST PUSH1 0x0 PUSH2 0xC38 PUSH2 0xC33 DUP5 PUSH2 0xBE5 JUMP JUMPDEST PUSH2 0xBCA JUMP JUMPDEST SWAP1 POP DUP3 DUP2 MSTORE PUSH1 0x20 DUP2 ADD DUP5 DUP5 DUP5 ADD GT ISZERO PUSH2 0xC54 JUMPI PUSH2 0xC53 PUSH2 0xB54 JUMP JUMPDEST JUMPDEST PUSH2 0xC5F DUP5 DUP3 DUP6 PUSH2 0xC16 JUMP JUMPDEST POP SWAP4 SWAP3 POP POP POP JUMP JUMPDEST PUSH1 0x0 DUP3 PUSH1 0x1F DUP4 ADD SLT PUSH2 0xC7C JUMPI PUSH2 0xC7B PUSH2 0xB4F JUMP JUMPDEST JUMPDEST DUP2 CALLDATALOAD PUSH2 0xC8C DUP5 DUP3 PUSH1 0x20 DUP7 ADD PUSH2 0xC25 JUMP JUMPDEST SWAP2 POP POP SWAP3 SWAP2 POP POP JUMP JUMPDEST PUSH1 0x0 DUP1 PUSH1 0x0 DUP1 PUSH1 0x80 DUP6 DUP8 SUB SLT ISZERO PUSH2 0xCAF JUMPI PUSH2 0xCAE PUSH2 0xAE3 JUMP JUMPDEST JUMPDEST PUSH1 0x0 PUSH2 0xCBD DUP8 DUP3 DUP9 ADD PUSH2 0xB04 JUMP JUMPDEST SWAP5 POP POP PUSH1 0x20 PUSH2 0xCCE DUP8 DUP3 DUP9 ADD PUSH2 0xB04 JUMP JUMPDEST SWAP4 POP POP PUSH1 0x40 PUSH2 0xCDF DUP8 DUP3 DUP9 ADD PUSH2 0xB3A JUMP JUMPDEST SWAP3 POP POP PUSH1 0x60 DUP6 ADD CALLDATALOAD PUSH8 0xFFFFFFFFFFFFFFFF DUP2 GT ISZERO PUSH2 0xD00 JUMPI PUSH2 0xCFF PUSH2 0xAE8 JUMP JUMPDEST JUMPDEST PUSH2 0xD0C DUP8 DUP3 DUP9 ADD PUSH2 0xC67 JUMP JUMPDEST SWAP2 POP POP SWAP3 SWAP6 SWAP2 SWAP5 POP SWAP3 POP JUMP JUMPDEST PUSH1 0x0 PUSH32 0xFFFFFFFF00000000000000000000000000000000000000000000000000000000 DUP3 AND SWAP1 POP SWAP2 SWAP1 POP JUMP JUMPDEST PUSH2 0xD4D DUP2 PUSH2 0xD18 JUMP JUMPDEST DUP3 MSTORE POP POP JUMP JUMPDEST PUSH1 0x0 PUSH1 0x20 DUP3 ADD SWAP1 POP PUSH2 0xD68 PUSH1 0x0 DUP4 ADD DUP5 PUSH2 0xD44 JUMP JUMPDEST SWAP3 SWAP2 POP POP JUMP JUMPDEST PUSH2 0xD77 DUP2 PUSH2 0xB19 JUMP JUMPDEST DUP3 MSTORE POP POP JUMP JUMPDEST PUSH1 0x0 PUSH1 0x20 DUP3 ADD SWAP1 POP PUSH2 0xD92 PUSH1 0x0 DUP4 ADD DUP5 PUSH2 0xD6E JUMP JUMPDEST SWAP3 SWAP2 POP POP JUMP JUMPDEST PUSH1 0x0 DUP2 SWAP1 POP SWAP2 SWAP1 POP JUMP JUMPDEST PUSH1 0x0 PUSH2 0xDBD PUSH2 0xDB8 PUSH2 0xDB3 DUP5 PUSH2 0xA47 JUMP JUMPDEST PUSH2 0xD98 JUMP JUMPDEST PUSH2 0xA47 JUMP JUMPDEST SWAP1 POP SWAP2 SWAP1 POP JUMP JUMPDEST PUSH1 0x0 PUSH2 0xDCF DUP3 PUSH2 0xDA2 JUMP JUMPDEST SWAP1 POP SWAP2 SWAP1 POP JUMP JUMPDEST PUSH1 0x0 PUSH2 0xDE1 DUP3 PUSH2 0xDC4 JUMP JUMPDEST SWAP1 POP SWAP2 SWAP1 POP JUMP JUMPDEST PUSH2 0xDF1 DUP2 PUSH2 0xDD6 JUMP JUMPDEST DUP3 MSTORE POP POP JUMP JUMPDEST PUSH1 0x0 PUSH1 0x20 DUP3 ADD SWAP1 POP PUSH2 0xE0C PUSH1 0x0 DUP4 ADD DUP5 PUSH2 0xDE8 JUMP JUMPDEST SWAP3 SWAP2 POP POP JUMP JUMPDEST PUSH1 0x0 DUP3 DUP3 MSTORE PUSH1 0x20 DUP3 ADD SWAP1 POP SWAP3 SWAP2 POP POP JUMP JUMPDEST PUSH32 0x41756374696F6E2068617320656E646564000000000000000000000000000000 PUSH1 0x0 DUP3 ADD MSTORE POP JUMP JUMPDEST PUSH1 0x0 PUSH2 0xE59 PUSH1 0x11 DUP4 PUSH2 0xE12 JUMP JUMPDEST SWAP2 POP PUSH2 0xE64 DUP3 PUSH2 0xE23 JUMP JUMPDEST PUSH1 0x20 DUP3 ADD SWAP1 POP SWAP2 SWAP1 POP JUMP JUMPDEST PUSH1 0x0 PUSH1 0x20 DUP3 ADD SWAP1 POP DUP2 DUP2 SUB PUSH1 0x0 DUP4 ADD MSTORE PUSH2 0xE88 DUP2 PUSH2 0xE4C JUMP JUMPDEST SWAP1 POP SWAP2 SWAP1 POP JUMP JUMPDEST PUSH32 0x42696420616D6F756E74206973206C657373207468616E207468652063757272 PUSH1 0x0 DUP3 ADD MSTORE PUSH32 0x656E742070726963650000000000000000000000000000000000000000000000 PUSH1 0x20 DUP3 ADD MSTORE POP JUMP JUMPDEST PUSH1 0x0 PUSH2 0xEEB PUSH1 0x29 DUP4 PUSH2 0xE12 JUMP JUMPDEST SWAP2 POP PUSH2 0xEF6 DUP3 PUSH2 0xE8F JUMP JUMPDEST PUSH1 0x40 DUP3 ADD SWAP1 POP SWAP2 SWAP1 POP JUMP JUMPDEST PUSH1 0x0 PUSH1 0x20 DUP3 ADD SWAP1 POP DUP2 DUP2 SUB PUSH1 0x0 DUP4 ADD MSTORE PUSH2 0xF1A DUP2 PUSH2 0xEDE JUMP JUMPDEST SWAP1 POP SWAP2 SWAP1 POP JUMP JUMPDEST PUSH32 0x4E487B7100000000000000000000000000000000000000000000000000000000 PUSH1 0x0 MSTORE PUSH1 0x11 PUSH1 0x4 MSTORE PUSH1 0x24 PUSH1 0x0 REVERT JUMPDEST PUSH1 0x0 PUSH2 0xF5B DUP3 PUSH2 0xB19 JUMP JUMPDEST SWAP2 POP PUSH2 0xF66 DUP4 PUSH2 0xB19 JUMP JUMPDEST SWAP3 POP DUP3 DUP3 SUB SWAP1 POP DUP2 DUP2 GT ISZERO PUSH2 0xF7E JUMPI PUSH2 0xF7D PUSH2 0xF21 JUMP JUMPDEST JUMPDEST SWAP3 SWAP2 POP POP JUMP JUMPDEST PUSH32 0x4F6E6C79207468652073656C6C65722063616E2063616C6C2074686973206675 PUSH1 0x0 DUP3 ADD MSTORE PUSH32 0x6E6374696F6E0000000000000000000000000000000000000000000000000000 PUSH1 0x20 DUP3 ADD MSTORE POP JUMP JUMPDEST PUSH1 0x0 PUSH2 0xFE0 PUSH1 0x26 DUP4 PUSH2 0xE12 JUMP JUMPDEST SWAP2 POP PUSH2 0xFEB DUP3 PUSH2 0xF84 JUMP JUMPDEST PUSH1 0x40 DUP3 ADD SWAP1 POP SWAP2 SWAP1 POP JUMP JUMPDEST PUSH1 0x0 PUSH1 0x20 DUP3 ADD SWAP1 POP DUP2 DUP2 SUB PUSH1 0x0 DUP4 ADD MSTORE PUSH2 0x100F DUP2 PUSH2 0xFD3 JUMP JUMPDEST SWAP1 POP SWAP2 SWAP1 POP JUMP JUMPDEST PUSH32 0x41756374696F6E20616C72656164792066696E616C697A656400000000000000 PUSH1 0x0 DUP3 ADD MSTORE POP JUMP JUMPDEST PUSH1 0x0 PUSH2 0x104C PUSH1 0x19 DUP4 PUSH2 0xE12 JUMP JUMPDEST SWAP2 POP PUSH2 0x1057 DUP3 PUSH2 0x1016 JUMP JUMPDEST PUSH1 0x20 DUP3 ADD SWAP1 POP SWAP2 SWAP1 POP JUMP JUMPDEST PUSH1 0x0 PUSH1 0x20 DUP3 ADD SWAP1 POP DUP2 DUP2 SUB PUSH1 0x0 DUP4 ADD MSTORE PUSH2 0x107B DUP2 PUSH2 0x103F JUMP JUMPDEST SWAP1 POP SWAP2 SWAP1 POP JUMP JUMPDEST PUSH1 0x0 PUSH1 0x60 DUP3 ADD SWAP1 POP PUSH2 0x1097 PUSH1 0x0 DUP4 ADD DUP7 PUSH2 0xA79 JUMP JUMPDEST PUSH2 0x10A4 PUSH1 0x20 DUP4 ADD DUP6 PUSH2 0xA79 JUMP JUMPDEST PUSH2 0x10B1 PUSH1 0x40 DUP4 ADD DUP5 PUSH2 0xD6E JUMP JUMPDEST SWAP5 SWAP4 POP POP POP POP JUMP JUMPDEST PUSH1 0x0 PUSH1 0x40 DUP3 ADD SWAP1 POP PUSH2 0x10CE PUSH1 0x0 DUP4 ADD DUP6 PUSH2 0xA79 JUMP JUMPDEST PUSH2 0x10DB PUSH1 0x20 DUP4 ADD DUP5 PUSH2 0xD6E JUMP JUMPDEST SWAP4 SWAP3 POP POP POP JUMP JUMPDEST PUSH1 0x0 PUSH2 0x10ED DUP3 PUSH2 0xB19 JUMP JUMPDEST SWAP2 POP PUSH2 0x10F8 DUP4 PUSH2 0xB19 JUMP JUMPDEST SWAP3 POP DUP3 DUP3 MUL PUSH2 0x1106 DUP2 PUSH2 0xB19 JUMP JUMPDEST SWAP2 POP DUP3 DUP3 DIV DUP5 EQ DUP4 ISZERO OR PUSH2 0x111D JUMPI PUSH2 0x111C PUSH2 0xF21 JUMP JUMPDEST JUMPDEST POP SWAP3 SWAP2 POP POP JUMP JUMPDEST PUSH1 0x0 PUSH2 0x112F DUP3 PUSH2 0xB19 JUMP JUMPDEST SWAP2 POP PUSH2 0x113A DUP4 PUSH2 0xB19 JUMP JUMPDEST SWAP3 POP DUP3 DUP3 ADD SWAP1 POP DUP1 DUP3 GT ISZERO PUSH2 0x1152 JUMPI PUSH2 0x1151 PUSH2 0xF21 JUMP JUMPDEST JUMPDEST SWAP3 SWAP2 POP POP JUMP INVALID LOG2 PUSH5 0x6970667358 0x22 SLT KECCAK256 0xB7 0xBC 0xE2 0x5E 0x28 PUSH29 0xB14AA8C448D0FE7F1D1A2656A1401C66F620969AD3324041353864736F PUSH13 0x63430008120033000000000000 "},"methodIdentifiers":{"auctionEnded()":"86433374","auctionFinalized()":"0bd8a1d0","bid()":"1998aeef","currentPrice()":"9d1b464a","finalizeAuction()":"f77282ab","highestBidAmount()":"8f9b4874","highestBidderAddress()":"f85fe8ad","initialPrice()":"1d0806ae","nftToken()":"d06fcba8","nftTokenId()":"7e830574","numBlocksAuctionOpen()":"3103ea62","offerPriceDecrement()":"d3642a88","onERC721Received(address,address,uint256,bytes)":"150b7a02","reservePrice()":"db2e1eed","seller()":"08551a53"}}}}}