{"contracts/NFTDutchAuction.sol":{"NFTDutchAuction":{"abi":[{"inputs":[{"internalType":"address","name":"_nftTokenAddress","type":"address"},{"internalType":"uint256","name":"_nftTokenId","type":"uint256"},{"internalType":"uint256","name":"_reservePrice","type":"uint256"},{"internalType":"uint256","name":"_numBlocksAuctionOpen","type":"uint256"},{"internalType":"uint256","name":"_offerPriceDecrement","type":"uint256"}],"stateMutability":"nonpayable","type":"constructor"},{"inputs":[],"name":"auctionEndTime","outputs":[{"internalType":"uint256","name":"","type":"uint256"}],"stateMutability":"view","type":"function"},{"inputs":[],"name":"auctionEnded","outputs":[{"internalType":"bool","name":"","type":"bool"}],"stateMutability":"view","type":"function"},{"inputs":[],"name":"auctionStartTime","outputs":[{"internalType":"uint256","name":"","type":"uint256"}],"stateMutability":"view","type":"function"},{"inputs":[],"name":"bid","outputs":[],"stateMutability":"payable","type":"function"},{"inputs":[],"name":"cancelAuction","outputs":[],"stateMutability":"nonpayable","type":"function"},{"inputs":[],"name":"currentPrice","outputs":[{"internalType":"uint256","name":"","type":"uint256"}],"stateMutability":"view","type":"function"},{"inputs":[],"name":"getCurrentPrice","outputs":[{"internalType":"uint256","name":"","type":"uint256"}],"stateMutability":"view","type":"function"},{"inputs":[],"name":"initialPrice","outputs":[{"internalType":"uint256","name":"","type":"uint256"}],"stateMutability":"view","type":"function"},{"inputs":[],"name":"nftToken","outputs":[{"internalType":"contract IERC721","name":"","type":"address"}],"stateMutability":"view","type":"function"},{"inputs":[],"name":"nftTokenId","outputs":[{"internalType":"uint256","name":"","type":"uint256"}],"stateMutability":"view","type":"function"},{"inputs":[],"name":"numBlocksAuctionOpen","outputs":[{"internalType":"uint256","name":"","type":"uint256"}],"stateMutability":"view","type":"function"},{"inputs":[],"name":"offerPriceDecrement","outputs":[{"internalType":"uint256","name":"","type":"uint256"}],"stateMutability":"view","type":"function"},{"inputs":[],"name":"reservePrice","outputs":[{"internalType":"uint256","name":"","type":"uint256"}],"stateMutability":"view","type":"function"},{"inputs":[],"name":"seller","outputs":[{"internalType":"address payable","name":"","type":"address"}],"stateMutability":"view","type":"function"}],"evm":{"bytecode":{"linkReferences":{},"object":"60806040523480156200001157600080fd5b50604051620014ec380380620014ec83398181016040528101906200003791906200034d565b6200005266ea5ed1bb915ae860c01b620002a560201b60201c565b6200006e67db6c2976e3ef912c60c01b620002a560201b60201c565b336000806101000a81548173ffffffffffffffffffffffffffffffffffffffff021916908373ffffffffffffffffffffffffffffffffffffffff160217905550620000ca67401fb632cbd0445860c01b620002a560201b60201c565b84600160006101000a81548173ffffffffffffffffffffffffffffffffffffffff021916908373ffffffffffffffffffffffffffffffffffffffff1602179055506200012767d0225c2c424d319460c01b620002a560201b60201c565b836002819055506200014a679c0de97e2499189460c01b620002a560201b60201c565b826003819055506200016d673ab93ec4372e02b460c01b620002a560201b60201c565b816004819055506200019067c78bbfd25ee4479b60c01b620002a560201b60201c565b80600581905550620001b2666304e56f11d6bc60c01b620002a560201b60201c565b43600781905550620001d567de415bc1cf7e63f960c01b620002a560201b60201c565b600454600754620001e7919062000404565b6008819055506200020967b316268ab77bea2160c01b620002a560201b60201c565b60016004546200021a91906200043f565b6005546200022991906200047a565b60035462000238919062000404565b6006819055506200025a67bd984d850a97a29460c01b620002a560201b60201c565b6006546009819055506200027f6746ec70d3a8540ca660c01b620002a560201b60201c565b6000600a60006101000a81548160ff0219169083151502179055505050505050620004c5565b50565b600080fd5b600073ffffffffffffffffffffffffffffffffffffffff82169050919050565b6000620002da82620002ad565b9050919050565b620002ec81620002cd565b8114620002f857600080fd5b50565b6000815190506200030c81620002e1565b92915050565b6000819050919050565b620003278162000312565b81146200033357600080fd5b50565b60008151905062000347816200031c565b92915050565b600080600080600060a086880312156200036c576200036b620002a8565b5b60006200037c88828901620002fb565b95505060206200038f8882890162000336565b9450506040620003a28882890162000336565b9350506060620003b58882890162000336565b9250506080620003c88882890162000336565b9150509295509295909350565b7f4e487b7100000000000000000000000000000000000000000000000000000000600052601160045260246000fd5b6000620004118262000312565b91506200041e8362000312565b9250828201905080821115620004395762000438620003d5565b5b92915050565b60006200044c8262000312565b9150620004598362000312565b9250828203905081811115620004745762000473620003d5565b5b92915050565b6000620004878262000312565b9150620004948362000312565b9250828202620004a48162000312565b91508282048414831517620004be57620004bd620003d5565b5b5092915050565b61101780620004d56000396000f3fe6080604052600436106100dd5760003560e01c80638fa8b7901161007f578063d3642a8811610059578063d3642a881461025b578063db2e1eed14610286578063eb54f9ec146102b1578063eb91d37e146102dc576100dd565b80638fa8b790146101ee5780639d1b464a14610205578063d06fcba814610230576100dd565b80633103ea62116100bb5780633103ea62146101425780634b449cba1461016d5780637e8305741461019857806386433374146101c3576100dd565b806308551a53146100e25780631998aeef1461010d5780631d0806ae14610117575b600080fd5b3480156100ee57600080fd5b506100f7610307565b6040516101049190610b26565b60405180910390f35b61011561032b565b005b34801561012357600080fd5b5061012c6106b5565b6040516101399190610b5a565b60405180910390f35b34801561014e57600080fd5b506101576106bb565b6040516101649190610b5a565b60405180910390f35b34801561017957600080fd5b506101826106c1565b60405161018f9190610b5a565b60405180910390f35b3480156101a457600080fd5b506101ad6106c7565b6040516101ba9190610b5a565b60405180910390f35b3480156101cf57600080fd5b506101d86106cd565b6040516101e59190610b90565b60405180910390f35b3480156101fa57600080fd5b506102036106e0565b005b34801561021157600080fd5b5061021a61097e565b6040516102279190610b5a565b60405180910390f35b34801561023c57600080fd5b50610245610984565b6040516102529190610c0a565b60405180910390f35b34801561026757600080fd5b506102706109aa565b60405161027d9190610b5a565b60405180910390f35b34801561029257600080fd5b5061029b6109b0565b6040516102a89190610b5a565b60405180910390f35b3480156102bd57600080fd5b506102c66109b6565b6040516102d39190610b5a565b60405180910390f35b3480156102e857600080fd5b506102f16109bc565b6040516102fe9190610b5a565b60405180910390f35b60008054906101000a900473ffffffffffffffffffffffffffffffffffffffff1681565b61033f6799f0576b2ea004de60c01b610ae2565b61035367f6fc6e1bad2d08f860c01b610ae2565b610367671d71779c6ea82ff660c01b610ae2565b61037b67253ebae0949896ef60c01b610ae2565b600a60009054906101000a900460ff16156103cb576040517f08c379a00000000000000000000000000000000000000000000000000000000081526004016103c290610c82565b60405180910390fd5b6103df6709f99ff618a2ba2d60c01b610ae2565b6103f36752609f967b86401560c01b610ae2565b6104076732046cc930a99c0f60c01b610ae2565b61041b6797b8613d99559df660c01b610ae2565b600854431115610460576040517f08c379a000000000000000000000000000000000000000000000000000000000815260040161045790610d14565b60405180910390fd5b61047467f98bdc8424f77c6f60c01b610ae2565b610488676aa039098bd112b960c01b610ae2565b61049c6702d5417cbb738ce260c01b610ae2565b6104b067909d81c614d5688e60c01b610ae2565b6005546001600754436104c39190610d63565b6104cd9190610d97565b6104d79190610dcb565b6006546104e49190610d63565b341015610526576040517f08c379a000000000000000000000000000000000000000000000000000000000815260040161051d90610e7f565b60405180910390fd5b61053a67157ffa898d5c5dfd60c01b610ae2565b61054e67e286501a61c6bf7b60c01b610ae2565b61056267015c64042a39a10660c01b610ae2565b60008054906101000a900473ffffffffffffffffffffffffffffffffffffffff1673ffffffffffffffffffffffffffffffffffffffff166108fc349081150290604051600060405180830381858888f193505050501580156105c8573d6000803e3d6000fd5b506105dd6713f62913e6e259e260c01b610ae2565b6105f167d95aa533eee66c0060c01b610ae2565b600160009054906101000a900473ffffffffffffffffffffffffffffffffffffffff1673ffffffffffffffffffffffffffffffffffffffff166342842e0e30336002546040518463ffffffff1660e01b815260040161065293929190610ec0565b600060405180830381600087803b15801561066c57600080fd5b505af1158015610680573d6000803e3d6000fd5b5050505061069867d61703cf500a419960c01b610ae2565b6001600a60006101000a81548160ff021916908315150217905550565b60065481565b60045481565b60085481565b60025481565b600a60009054906101000a900460ff1681565b6106f4679756d023218f771460c01b610ae2565b6107086717e62f9a0a8e958260c01b610ae2565b61071c6770b5f850d9c9a4f360c01b610ae2565b610730677be5563a0c6fb9dd60c01b610ae2565b60008054906101000a900473ffffffffffffffffffffffffffffffffffffffff1673ffffffffffffffffffffffffffffffffffffffff163373ffffffffffffffffffffffffffffffffffffffff16146107be576040517f08c379a00000000000000000000000000000000000000000000000000000000081526004016107b590610f69565b60405180910390fd5b6107d26701b81aedd86b5e1f60c01b610ae2565b6107e667acdbac9743c6026060c01b610ae2565b6107fa67e0d5284ac3b2300060c01b610ae2565b61080e67a0cf3aa0d901d5fd60c01b610ae2565b600a60009054906101000a900460ff161561085e576040517f08c379a000000000000000000000000000000000000000000000000000000000815260040161085590610c82565b60405180910390fd5b6108726726e3ed72651bf1d960c01b610ae2565b61088667cb445b1361eb41c060c01b610ae2565b6001600a60006101000a81548160ff0219169083151502179055506108b567871755eb0d680dd460c01b610ae2565b6108c967ba51ec04a06bc3d660c01b610ae2565b600160009054906101000a900473ffffffffffffffffffffffffffffffffffffffff1673ffffffffffffffffffffffffffffffffffffffff166342842e0e3060008054906101000a900473ffffffffffffffffffffffffffffffffffffffff166002546040518463ffffffff1660e01b815260040161094a93929190610faa565b600060405180830381600087803b15801561096457600080fd5b505af1158015610978573d6000803e3d6000fd5b50505050565b60095481565b600160009054906101000a900473ffffffffffffffffffffffffffffffffffffffff1681565b60055481565b60035481565b60075481565b60006109d267c750622344db501860c01b610ae2565b6109e6675abb95be611be71460c01b610ae2565b6109fa672087769c6072fbdd60c01b610ae2565b600060075443610a0a9190610d63565b9050610a2067df79fcc9932f882160c01b610ae2565b610a3467df61d3e5cc90710c60c01b610ae2565b6004548110610a8457610a5167ec0c79f7a57bc7df60c01b610ae2565b610a6567f8b4b7b6294a9ff760c01b610ae2565b610a7967dc697c16961887b160c01b610ae2565b600354915050610adf565b610a9867658c5044d933bbe360c01b610ae2565b610aac673a71aac78d21a46f60c01b610ae2565b610ac06766a7601ec09a47d760c01b610ae2565b60055481610ace9190610dcb565b600654610adb9190610d63565b9150505b90565b50565b600073ffffffffffffffffffffffffffffffffffffffff82169050919050565b6000610b1082610ae5565b9050919050565b610b2081610b05565b82525050565b6000602082019050610b3b6000830184610b17565b92915050565b6000819050919050565b610b5481610b41565b82525050565b6000602082019050610b6f6000830184610b4b565b92915050565b60008115159050919050565b610b8a81610b75565b82525050565b6000602082019050610ba56000830184610b81565b92915050565b6000819050919050565b6000610bd0610bcb610bc684610ae5565b610bab565b610ae5565b9050919050565b6000610be282610bb5565b9050919050565b6000610bf482610bd7565b9050919050565b610c0481610be9565b82525050565b6000602082019050610c1f6000830184610bfb565b92915050565b600082825260208201905092915050565b7f41756374696f6e2068617320616c726561647920656e64656400000000000000600082015250565b6000610c6c601983610c25565b9150610c7782610c36565b602082019050919050565b60006020820190508181036000830152610c9b81610c5f565b9050919050565b7f41756374696f6e2068617320657863656564656420746865206d6178696d756d60008201527f206e756d626572206f6620626c6f636b73000000000000000000000000000000602082015250565b6000610cfe603183610c25565b9150610d0982610ca2565b604082019050919050565b60006020820190508181036000830152610d2d81610cf1565b9050919050565b7f4e487b7100000000000000000000000000000000000000000000000000000000600052601160045260246000fd5b6000610d6e82610b41565b9150610d7983610b41565b9250828203905081811115610d9157610d90610d34565b5b92915050565b6000610da282610b41565b9150610dad83610b41565b9250828201905080821115610dc557610dc4610d34565b5b92915050565b6000610dd682610b41565b9150610de183610b41565b9250828202610def81610b41565b91508282048414831517610e0657610e05610d34565b5b5092915050565b7f42696420616d6f756e74206973206c657373207468616e20746865206375727260008201527f656e742070726963650000000000000000000000000000000000000000000000602082015250565b6000610e69602983610c25565b9150610e7482610e0d565b604082019050919050565b60006020820190508181036000830152610e9881610e5c565b9050919050565b6000610eaa82610ae5565b9050919050565b610eba81610e9f565b82525050565b6000606082019050610ed56000830186610eb1565b610ee26020830185610eb1565b610eef6040830184610b4b565b949350505050565b7f4f6e6c79207468652073656c6c65722063616e2063616e63656c20746865206160008201527f756374696f6e0000000000000000000000000000000000000000000000000000602082015250565b6000610f53602683610c25565b9150610f5e82610ef7565b604082019050919050565b60006020820190508181036000830152610f8281610f46565b9050919050565b6000610f9482610bd7565b9050919050565b610fa481610f89565b82525050565b6000606082019050610fbf6000830186610eb1565b610fcc6020830185610f9b565b610fd96040830184610b4b565b94935050505056fea2646970667358221220f13264a013bb98b5a1a0206bc3323453965ea1bd6907b3df1a26cf8f31fa0ea964736f6c63430008120033","opcodes":"PUSH1 0x80 PUSH1 0x40 MSTORE CALLVALUE DUP1 ISZERO PUSH3 0x11 JUMPI PUSH1 0x0 DUP1 REVERT JUMPDEST POP PUSH1 0x40 MLOAD PUSH3 0x14EC CODESIZE SUB DUP1 PUSH3 0x14EC DUP4 CODECOPY DUP2 DUP2 ADD PUSH1 0x40 MSTORE DUP2 ADD SWAP1 PUSH3 0x37 SWAP2 SWAP1 PUSH3 0x34D JUMP JUMPDEST PUSH3 0x52 PUSH7 0xEA5ED1BB915AE8 PUSH1 0xC0 SHL PUSH3 0x2A5 PUSH1 0x20 SHL PUSH1 0x20 SHR JUMP JUMPDEST PUSH3 0x6E PUSH8 0xDB6C2976E3EF912C PUSH1 0xC0 SHL PUSH3 0x2A5 PUSH1 0x20 SHL PUSH1 0x20 SHR JUMP JUMPDEST CALLER PUSH1 0x0 DUP1 PUSH2 0x100 EXP DUP2 SLOAD DUP2 PUSH20 0xFFFFFFFFFFFFFFFFFFFFFFFFFFFFFFFFFFFFFFFF MUL NOT AND SWAP1 DUP4 PUSH20 0xFFFFFFFFFFFFFFFFFFFFFFFFFFFFFFFFFFFFFFFF AND MUL OR SWAP1 SSTORE POP PUSH3 0xCA PUSH8 0x401FB632CBD04458 PUSH1 0xC0 SHL PUSH3 0x2A5 PUSH1 0x20 SHL PUSH1 0x20 SHR JUMP JUMPDEST DUP5 PUSH1 0x1 PUSH1 0x0 PUSH2 0x100 EXP DUP2 SLOAD DUP2 PUSH20 0xFFFFFFFFFFFFFFFFFFFFFFFFFFFFFFFFFFFFFFFF MUL NOT AND SWAP1 DUP4 PUSH20 0xFFFFFFFFFFFFFFFFFFFFFFFFFFFFFFFFFFFFFFFF AND MUL OR SWAP1 SSTORE POP PUSH3 0x127 PUSH8 0xD0225C2C424D3194 PUSH1 0xC0 SHL PUSH3 0x2A5 PUSH1 0x20 SHL PUSH1 0x20 SHR JUMP JUMPDEST DUP4 PUSH1 0x2 DUP2 SWAP1 SSTORE POP PUSH3 0x14A PUSH8 0x9C0DE97E24991894 PUSH1 0xC0 SHL PUSH3 0x2A5 PUSH1 0x20 SHL PUSH1 0x20 SHR JUMP JUMPDEST DUP3 PUSH1 0x3 DUP2 SWAP1 SSTORE POP PUSH3 0x16D PUSH8 0x3AB93EC4372E02B4 PUSH1 0xC0 SHL PUSH3 0x2A5 PUSH1 0x20 SHL PUSH1 0x20 SHR JUMP JUMPDEST DUP2 PUSH1 0x4 DUP2 SWAP1 SSTORE POP PUSH3 0x190 PUSH8 0xC78BBFD25EE4479B PUSH1 0xC0 SHL PUSH3 0x2A5 PUSH1 0x20 SHL PUSH1 0x20 SHR JUMP JUMPDEST DUP1 PUSH1 0x5 DUP2 SWAP1 SSTORE POP PUSH3 0x1B2 PUSH7 0x6304E56F11D6BC PUSH1 0xC0 SHL PUSH3 0x2A5 PUSH1 0x20 SHL PUSH1 0x20 SHR JUMP JUMPDEST NUMBER PUSH1 0x7 DUP2 SWAP1 SSTORE POP PUSH3 0x1D5 PUSH8 0xDE415BC1CF7E63F9 PUSH1 0xC0 SHL PUSH3 0x2A5 PUSH1 0x20 SHL PUSH1 0x20 SHR JUMP JUMPDEST PUSH1 0x4 SLOAD PUSH1 0x7 SLOAD PUSH3 0x1E7 SWAP2 SWAP1 PUSH3 0x404 JUMP JUMPDEST PUSH1 0x8 DUP2 SWAP1 SSTORE POP PUSH3 0x209 PUSH8 0xB316268AB77BEA21 PUSH1 0xC0 SHL PUSH3 0x2A5 PUSH1 0x20 SHL PUSH1 0x20 SHR JUMP JUMPDEST PUSH1 0x1 PUSH1 0x4 SLOAD PUSH3 0x21A SWAP2 SWAP1 PUSH3 0x43F JUMP JUMPDEST PUSH1 0x5 SLOAD PUSH3 0x229 SWAP2 SWAP1 PUSH3 0x47A JUMP JUMPDEST PUSH1 0x3 SLOAD PUSH3 0x238 SWAP2 SWAP1 PUSH3 0x404 JUMP JUMPDEST PUSH1 0x6 DUP2 SWAP1 SSTORE POP PUSH3 0x25A PUSH8 0xBD984D850A97A294 PUSH1 0xC0 SHL PUSH3 0x2A5 PUSH1 0x20 SHL PUSH1 0x20 SHR JUMP JUMPDEST PUSH1 0x6 SLOAD PUSH1 0x9 DUP2 SWAP1 SSTORE POP PUSH3 0x27F PUSH8 0x46EC70D3A8540CA6 PUSH1 0xC0 SHL PUSH3 0x2A5 PUSH1 0x20 SHL PUSH1 0x20 SHR JUMP JUMPDEST PUSH1 0x0 PUSH1 0xA PUSH1 0x0 PUSH2 0x100 EXP DUP2 SLOAD DUP2 PUSH1 0xFF MUL NOT AND SWAP1 DUP4 ISZERO ISZERO MUL OR SWAP1 SSTORE POP POP POP POP POP POP PUSH3 0x4C5 JUMP JUMPDEST POP JUMP JUMPDEST PUSH1 0x0 DUP1 REVERT JUMPDEST PUSH1 0x0 PUSH20 0xFFFFFFFFFFFFFFFFFFFFFFFFFFFFFFFFFFFFFFFF DUP3 AND SWAP1 POP SWAP2 SWAP1 POP JUMP JUMPDEST PUSH1 0x0 PUSH3 0x2DA DUP3 PUSH3 0x2AD JUMP JUMPDEST SWAP1 POP SWAP2 SWAP1 POP JUMP JUMPDEST PUSH3 0x2EC DUP2 PUSH3 0x2CD JUMP JUMPDEST DUP2 EQ PUSH3 0x2F8 JUMPI PUSH1 0x0 DUP1 REVERT JUMPDEST POP JUMP JUMPDEST PUSH1 0x0 DUP2 MLOAD SWAP1 POP PUSH3 0x30C DUP2 PUSH3 0x2E1 JUMP JUMPDEST SWAP3 SWAP2 POP POP JUMP JUMPDEST PUSH1 0x0 DUP2 SWAP1 POP SWAP2 SWAP1 POP JUMP JUMPDEST PUSH3 0x327 DUP2 PUSH3 0x312 JUMP JUMPDEST DUP2 EQ PUSH3 0x333 JUMPI PUSH1 0x0 DUP1 REVERT JUMPDEST POP JUMP JUMPDEST PUSH1 0x0 DUP2 MLOAD SWAP1 POP PUSH3 0x347 DUP2 PUSH3 0x31C JUMP JUMPDEST SWAP3 SWAP2 POP POP JUMP JUMPDEST PUSH1 0x0 DUP1 PUSH1 0x0 DUP1 PUSH1 0x0 PUSH1 0xA0 DUP7 DUP9 SUB SLT ISZERO PUSH3 0x36C JUMPI PUSH3 0x36B PUSH3 0x2A8 JUMP JUMPDEST JUMPDEST PUSH1 0x0 PUSH3 0x37C DUP9 DUP3 DUP10 ADD PUSH3 0x2FB JUMP JUMPDEST SWAP6 POP POP PUSH1 0x20 PUSH3 0x38F DUP9 DUP3 DUP10 ADD PUSH3 0x336 JUMP JUMPDEST SWAP5 POP POP PUSH1 0x40 PUSH3 0x3A2 DUP9 DUP3 DUP10 ADD PUSH3 0x336 JUMP JUMPDEST SWAP4 POP POP PUSH1 0x60 PUSH3 0x3B5 DUP9 DUP3 DUP10 ADD PUSH3 0x336 JUMP JUMPDEST SWAP3 POP POP PUSH1 0x80 PUSH3 0x3C8 DUP9 DUP3 DUP10 ADD PUSH3 0x336 JUMP JUMPDEST SWAP2 POP POP SWAP3 SWAP6 POP SWAP3 SWAP6 SWAP1 SWAP4 POP JUMP JUMPDEST PUSH32 0x4E487B7100000000000000000000000000000000000000000000000000000000 PUSH1 0x0 MSTORE PUSH1 0x11 PUSH1 0x4 MSTORE PUSH1 0x24 PUSH1 0x0 REVERT JUMPDEST PUSH1 0x0 PUSH3 0x411 DUP3 PUSH3 0x312 JUMP JUMPDEST SWAP2 POP PUSH3 0x41E DUP4 PUSH3 0x312 JUMP JUMPDEST SWAP3 POP DUP3 DUP3 ADD SWAP1 POP DUP1 DUP3 GT ISZERO PUSH3 0x439 JUMPI PUSH3 0x438 PUSH3 0x3D5 JUMP JUMPDEST JUMPDEST SWAP3 SWAP2 POP POP JUMP JUMPDEST PUSH1 0x0 PUSH3 0x44C DUP3 PUSH3 0x312 JUMP JUMPDEST SWAP2 POP PUSH3 0x459 DUP4 PUSH3 0x312 JUMP JUMPDEST SWAP3 POP DUP3 DUP3 SUB SWAP1 POP DUP2 DUP2 GT ISZERO PUSH3 0x474 JUMPI PUSH3 0x473 PUSH3 0x3D5 JUMP JUMPDEST JUMPDEST SWAP3 SWAP2 POP POP JUMP JUMPDEST PUSH1 0x0 PUSH3 0x487 DUP3 PUSH3 0x312 JUMP JUMPDEST SWAP2 POP PUSH3 0x494 DUP4 PUSH3 0x312 JUMP JUMPDEST SWAP3 POP DUP3 DUP3 MUL PUSH3 0x4A4 DUP2 PUSH3 0x312 JUMP JUMPDEST SWAP2 POP DUP3 DUP3 DIV DUP5 EQ DUP4 ISZERO OR PUSH3 0x4BE JUMPI PUSH3 0x4BD PUSH3 0x3D5 JUMP JUMPDEST JUMPDEST POP SWAP3 SWAP2 POP POP JUMP JUMPDEST PUSH2 0x1017 DUP1 PUSH3 0x4D5 PUSH1 0x0 CODECOPY PUSH1 0x0 RETURN INVALID PUSH1 0x80 PUSH1 0x40 MSTORE PUSH1 0x4 CALLDATASIZE LT PUSH2 0xDD JUMPI PUSH1 0x0 CALLDATALOAD PUSH1 0xE0 SHR DUP1 PUSH4 0x8FA8B790 GT PUSH2 0x7F JUMPI DUP1 PUSH4 0xD3642A88 GT PUSH2 0x59 JUMPI DUP1 PUSH4 0xD3642A88 EQ PUSH2 0x25B JUMPI DUP1 PUSH4 0xDB2E1EED EQ PUSH2 0x286 JUMPI DUP1 PUSH4 0xEB54F9EC EQ PUSH2 0x2B1 JUMPI DUP1 PUSH4 0xEB91D37E EQ PUSH2 0x2DC JUMPI PUSH2 0xDD JUMP JUMPDEST DUP1 PUSH4 0x8FA8B790 EQ PUSH2 0x1EE JUMPI DUP1 PUSH4 0x9D1B464A EQ PUSH2 0x205 JUMPI DUP1 PUSH4 0xD06FCBA8 EQ PUSH2 0x230 JUMPI PUSH2 0xDD JUMP JUMPDEST DUP1 PUSH4 0x3103EA62 GT PUSH2 0xBB JUMPI DUP1 PUSH4 0x3103EA62 EQ PUSH2 0x142 JUMPI DUP1 PUSH4 0x4B449CBA EQ PUSH2 0x16D JUMPI DUP1 PUSH4 0x7E830574 EQ PUSH2 0x198 JUMPI DUP1 PUSH4 0x86433374 EQ PUSH2 0x1C3 JUMPI PUSH2 0xDD JUMP JUMPDEST DUP1 PUSH4 0x8551A53 EQ PUSH2 0xE2 JUMPI DUP1 PUSH4 0x1998AEEF EQ PUSH2 0x10D JUMPI DUP1 PUSH4 0x1D0806AE EQ PUSH2 0x117 JUMPI JUMPDEST PUSH1 0x0 DUP1 REVERT JUMPDEST CALLVALUE DUP1 ISZERO PUSH2 0xEE JUMPI PUSH1 0x0 DUP1 REVERT JUMPDEST POP PUSH2 0xF7 PUSH2 0x307 JUMP JUMPDEST PUSH1 0x40 MLOAD PUSH2 0x104 SWAP2 SWAP1 PUSH2 0xB26 JUMP JUMPDEST PUSH1 0x40 MLOAD DUP1 SWAP2 SUB SWAP1 RETURN JUMPDEST PUSH2 0x115 PUSH2 0x32B JUMP JUMPDEST STOP JUMPDEST CALLVALUE DUP1 ISZERO PUSH2 0x123 JUMPI PUSH1 0x0 DUP1 REVERT JUMPDEST POP PUSH2 0x12C PUSH2 0x6B5 JUMP JUMPDEST PUSH1 0x40 MLOAD PUSH2 0x139 SWAP2 SWAP1 PUSH2 0xB5A JUMP JUMPDEST PUSH1 0x40 MLOAD DUP1 SWAP2 SUB SWAP1 RETURN JUMPDEST CALLVALUE DUP1 ISZERO PUSH2 0x14E JUMPI PUSH1 0x0 DUP1 REVERT JUMPDEST POP PUSH2 0x157 PUSH2 0x6BB JUMP JUMPDEST PUSH1 0x40 MLOAD PUSH2 0x164 SWAP2 SWAP1 PUSH2 0xB5A JUMP JUMPDEST PUSH1 0x40 MLOAD DUP1 SWAP2 SUB SWAP1 RETURN JUMPDEST CALLVALUE DUP1 ISZERO PUSH2 0x179 JUMPI PUSH1 0x0 DUP1 REVERT JUMPDEST POP PUSH2 0x182 PUSH2 0x6C1 JUMP JUMPDEST PUSH1 0x40 MLOAD PUSH2 0x18F SWAP2 SWAP1 PUSH2 0xB5A JUMP JUMPDEST PUSH1 0x40 MLOAD DUP1 SWAP2 SUB SWAP1 RETURN JUMPDEST CALLVALUE DUP1 ISZERO PUSH2 0x1A4 JUMPI PUSH1 0x0 DUP1 REVERT JUMPDEST POP PUSH2 0x1AD PUSH2 0x6C7 JUMP JUMPDEST PUSH1 0x40 MLOAD PUSH2 0x1BA SWAP2 SWAP1 PUSH2 0xB5A JUMP JUMPDEST PUSH1 0x40 MLOAD DUP1 SWAP2 SUB SWAP1 RETURN JUMPDEST CALLVALUE DUP1 ISZERO PUSH2 0x1CF JUMPI PUSH1 0x0 DUP1 REVERT JUMPDEST POP PUSH2 0x1D8 PUSH2 0x6CD JUMP JUMPDEST PUSH1 0x40 MLOAD PUSH2 0x1E5 SWAP2 SWAP1 PUSH2 0xB90 JUMP JUMPDEST PUSH1 0x40 MLOAD DUP1 SWAP2 SUB SWAP1 RETURN JUMPDEST CALLVALUE DUP1 ISZERO PUSH2 0x1FA JUMPI PUSH1 0x0 DUP1 REVERT JUMPDEST POP PUSH2 0x203 PUSH2 0x6E0 JUMP JUMPDEST STOP JUMPDEST CALLVALUE DUP1 ISZERO PUSH2 0x211 JUMPI PUSH1 0x0 DUP1 REVERT JUMPDEST POP PUSH2 0x21A PUSH2 0x97E JUMP JUMPDEST PUSH1 0x40 MLOAD PUSH2 0x227 SWAP2 SWAP1 PUSH2 0xB5A JUMP JUMPDEST PUSH1 0x40 MLOAD DUP1 SWAP2 SUB SWAP1 RETURN JUMPDEST CALLVALUE DUP1 ISZERO PUSH2 0x23C JUMPI PUSH1 0x0 DUP1 REVERT JUMPDEST POP PUSH2 0x245 PUSH2 0x984 JUMP JUMPDEST PUSH1 0x40 MLOAD PUSH2 0x252 SWAP2 SWAP1 PUSH2 0xC0A JUMP JUMPDEST PUSH1 0x40 MLOAD DUP1 SWAP2 SUB SWAP1 RETURN JUMPDEST CALLVALUE DUP1 ISZERO PUSH2 0x267 JUMPI PUSH1 0x0 DUP1 REVERT JUMPDEST POP PUSH2 0x270 PUSH2 0x9AA JUMP JUMPDEST PUSH1 0x40 MLOAD PUSH2 0x27D SWAP2 SWAP1 PUSH2 0xB5A JUMP JUMPDEST PUSH1 0x40 MLOAD DUP1 SWAP2 SUB SWAP1 RETURN JUMPDEST CALLVALUE DUP1 ISZERO PUSH2 0x292 JUMPI PUSH1 0x0 DUP1 REVERT JUMPDEST POP PUSH2 0x29B PUSH2 0x9B0 JUMP JUMPDEST PUSH1 0x40 MLOAD PUSH2 0x2A8 SWAP2 SWAP1 PUSH2 0xB5A JUMP JUMPDEST PUSH1 0x40 MLOAD DUP1 SWAP2 SUB SWAP1 RETURN JUMPDEST CALLVALUE DUP1 ISZERO PUSH2 0x2BD JUMPI PUSH1 0x0 DUP1 REVERT JUMPDEST POP PUSH2 0x2C6 PUSH2 0x9B6 JUMP JUMPDEST PUSH1 0x40 MLOAD PUSH2 0x2D3 SWAP2 SWAP1 PUSH2 0xB5A JUMP JUMPDEST PUSH1 0x40 MLOAD DUP1 SWAP2 SUB SWAP1 RETURN JUMPDEST CALLVALUE DUP1 ISZERO PUSH2 0x2E8 JUMPI PUSH1 0x0 DUP1 REVERT JUMPDEST POP PUSH2 0x2F1 PUSH2 0x9BC JUMP JUMPDEST PUSH1 0x40 MLOAD PUSH2 0x2FE SWAP2 SWAP1 PUSH2 0xB5A JUMP JUMPDEST PUSH1 0x40 MLOAD DUP1 SWAP2 SUB SWAP1 RETURN JUMPDEST PUSH1 0x0 DUP1 SLOAD SWAP1 PUSH2 0x100 EXP SWAP1 DIV PUSH20 0xFFFFFFFFFFFFFFFFFFFFFFFFFFFFFFFFFFFFFFFF AND DUP2 JUMP JUMPDEST PUSH2 0x33F PUSH8 0x99F0576B2EA004DE PUSH1 0xC0 SHL PUSH2 0xAE2 JUMP JUMPDEST PUSH2 0x353 PUSH8 0xF6FC6E1BAD2D08F8 PUSH1 0xC0 SHL PUSH2 0xAE2 JUMP JUMPDEST PUSH2 0x367 PUSH8 0x1D71779C6EA82FF6 PUSH1 0xC0 SHL PUSH2 0xAE2 JUMP JUMPDEST PUSH2 0x37B PUSH8 0x253EBAE0949896EF PUSH1 0xC0 SHL PUSH2 0xAE2 JUMP JUMPDEST PUSH1 0xA PUSH1 0x0 SWAP1 SLOAD SWAP1 PUSH2 0x100 EXP SWAP1 DIV PUSH1 0xFF AND ISZERO PUSH2 0x3CB JUMPI PUSH1 0x40 MLOAD PUSH32 0x8C379A000000000000000000000000000000000000000000000000000000000 DUP2 MSTORE PUSH1 0x4 ADD PUSH2 0x3C2 SWAP1 PUSH2 0xC82 JUMP JUMPDEST PUSH1 0x40 MLOAD DUP1 SWAP2 SUB SWAP1 REVERT JUMPDEST PUSH2 0x3DF PUSH8 0x9F99FF618A2BA2D PUSH1 0xC0 SHL PUSH2 0xAE2 JUMP JUMPDEST PUSH2 0x3F3 PUSH8 0x52609F967B864015 PUSH1 0xC0 SHL PUSH2 0xAE2 JUMP JUMPDEST PUSH2 0x407 PUSH8 0x32046CC930A99C0F PUSH1 0xC0 SHL PUSH2 0xAE2 JUMP JUMPDEST PUSH2 0x41B PUSH8 0x97B8613D99559DF6 PUSH1 0xC0 SHL PUSH2 0xAE2 JUMP JUMPDEST PUSH1 0x8 SLOAD NUMBER GT ISZERO PUSH2 0x460 JUMPI PUSH1 0x40 MLOAD PUSH32 0x8C379A000000000000000000000000000000000000000000000000000000000 DUP2 MSTORE PUSH1 0x4 ADD PUSH2 0x457 SWAP1 PUSH2 0xD14 JUMP JUMPDEST PUSH1 0x40 MLOAD DUP1 SWAP2 SUB SWAP1 REVERT JUMPDEST PUSH2 0x474 PUSH8 0xF98BDC8424F77C6F PUSH1 0xC0 SHL PUSH2 0xAE2 JUMP JUMPDEST PUSH2 0x488 PUSH8 0x6AA039098BD112B9 PUSH1 0xC0 SHL PUSH2 0xAE2 JUMP JUMPDEST PUSH2 0x49C PUSH8 0x2D5417CBB738CE2 PUSH1 0xC0 SHL PUSH2 0xAE2 JUMP JUMPDEST PUSH2 0x4B0 PUSH8 0x909D81C614D5688E PUSH1 0xC0 SHL PUSH2 0xAE2 JUMP JUMPDEST PUSH1 0x5 SLOAD PUSH1 0x1 PUSH1 0x7 SLOAD NUMBER PUSH2 0x4C3 SWAP2 SWAP1 PUSH2 0xD63 JUMP JUMPDEST PUSH2 0x4CD SWAP2 SWAP1 PUSH2 0xD97 JUMP JUMPDEST PUSH2 0x4D7 SWAP2 SWAP1 PUSH2 0xDCB JUMP JUMPDEST PUSH1 0x6 SLOAD PUSH2 0x4E4 SWAP2 SWAP1 PUSH2 0xD63 JUMP JUMPDEST CALLVALUE LT ISZERO PUSH2 0x526 JUMPI PUSH1 0x40 MLOAD PUSH32 0x8C379A000000000000000000000000000000000000000000000000000000000 DUP2 MSTORE PUSH1 0x4 ADD PUSH2 0x51D SWAP1 PUSH2 0xE7F JUMP JUMPDEST PUSH1 0x40 MLOAD DUP1 SWAP2 SUB SWAP1 REVERT JUMPDEST PUSH2 0x53A PUSH8 0x157FFA898D5C5DFD PUSH1 0xC0 SHL PUSH2 0xAE2 JUMP JUMPDEST PUSH2 0x54E PUSH8 0xE286501A61C6BF7B PUSH1 0xC0 SHL PUSH2 0xAE2 JUMP JUMPDEST PUSH2 0x562 PUSH8 0x15C64042A39A106 PUSH1 0xC0 SHL PUSH2 0xAE2 JUMP JUMPDEST PUSH1 0x0 DUP1 SLOAD SWAP1 PUSH2 0x100 EXP SWAP1 DIV PUSH20 0xFFFFFFFFFFFFFFFFFFFFFFFFFFFFFFFFFFFFFFFF AND PUSH20 0xFFFFFFFFFFFFFFFFFFFFFFFFFFFFFFFFFFFFFFFF AND PUSH2 0x8FC CALLVALUE SWAP1 DUP2 ISZERO MUL SWAP1 PUSH1 0x40 MLOAD PUSH1 0x0 PUSH1 0x40 MLOAD DUP1 DUP4 SUB DUP2 DUP6 DUP9 DUP9 CALL SWAP4 POP POP POP POP ISZERO DUP1 ISZERO PUSH2 0x5C8 JUMPI RETURNDATASIZE PUSH1 0x0 DUP1 RETURNDATACOPY RETURNDATASIZE PUSH1 0x0 REVERT JUMPDEST POP PUSH2 0x5DD PUSH8 0x13F62913E6E259E2 PUSH1 0xC0 SHL PUSH2 0xAE2 JUMP JUMPDEST PUSH2 0x5F1 PUSH8 0xD95AA533EEE66C00 PUSH1 0xC0 SHL PUSH2 0xAE2 JUMP JUMPDEST PUSH1 0x1 PUSH1 0x0 SWAP1 SLOAD SWAP1 PUSH2 0x100 EXP SWAP1 DIV PUSH20 0xFFFFFFFFFFFFFFFFFFFFFFFFFFFFFFFFFFFFFFFF AND PUSH20 0xFFFFFFFFFFFFFFFFFFFFFFFFFFFFFFFFFFFFFFFF AND PUSH4 0x42842E0E ADDRESS CALLER PUSH1 0x2 SLOAD PUSH1 0x40 MLOAD DUP5 PUSH4 0xFFFFFFFF AND PUSH1 0xE0 SHL DUP2 MSTORE PUSH1 0x4 ADD PUSH2 0x652 SWAP4 SWAP3 SWAP2 SWAP1 PUSH2 0xEC0 JUMP JUMPDEST PUSH1 0x0 PUSH1 0x40 MLOAD DUP1 DUP4 SUB DUP2 PUSH1 0x0 DUP8 DUP1 EXTCODESIZE ISZERO DUP1 ISZERO PUSH2 0x66C JUMPI PUSH1 0x0 DUP1 REVERT JUMPDEST POP GAS CALL ISZERO DUP1 ISZERO PUSH2 0x680 JUMPI RETURNDATASIZE PUSH1 0x0 DUP1 RETURNDATACOPY RETURNDATASIZE PUSH1 0x0 REVERT JUMPDEST POP POP POP POP PUSH2 0x698 PUSH8 0xD61703CF500A4199 PUSH1 0xC0 SHL PUSH2 0xAE2 JUMP JUMPDEST PUSH1 0x1 PUSH1 0xA PUSH1 0x0 PUSH2 0x100 EXP DUP2 SLOAD DUP2 PUSH1 0xFF MUL NOT AND SWAP1 DUP4 ISZERO ISZERO MUL OR SWAP1 SSTORE POP JUMP JUMPDEST PUSH1 0x6 SLOAD DUP2 JUMP JUMPDEST PUSH1 0x4 SLOAD DUP2 JUMP JUMPDEST PUSH1 0x8 SLOAD DUP2 JUMP JUMPDEST PUSH1 0x2 SLOAD DUP2 JUMP JUMPDEST PUSH1 0xA PUSH1 0x0 SWAP1 SLOAD SWAP1 PUSH2 0x100 EXP SWAP1 DIV PUSH1 0xFF AND DUP2 JUMP JUMPDEST PUSH2 0x6F4 PUSH8 0x9756D023218F7714 PUSH1 0xC0 SHL PUSH2 0xAE2 JUMP JUMPDEST PUSH2 0x708 PUSH8 0x17E62F9A0A8E9582 PUSH1 0xC0 SHL PUSH2 0xAE2 JUMP JUMPDEST PUSH2 0x71C PUSH8 0x70B5F850D9C9A4F3 PUSH1 0xC0 SHL PUSH2 0xAE2 JUMP JUMPDEST PUSH2 0x730 PUSH8 0x7BE5563A0C6FB9DD PUSH1 0xC0 SHL PUSH2 0xAE2 JUMP JUMPDEST PUSH1 0x0 DUP1 SLOAD SWAP1 PUSH2 0x100 EXP SWAP1 DIV PUSH20 0xFFFFFFFFFFFFFFFFFFFFFFFFFFFFFFFFFFFFFFFF AND PUSH20 0xFFFFFFFFFFFFFFFFFFFFFFFFFFFFFFFFFFFFFFFF AND CALLER PUSH20 0xFFFFFFFFFFFFFFFFFFFFFFFFFFFFFFFFFFFFFFFF AND EQ PUSH2 0x7BE JUMPI PUSH1 0x40 MLOAD PUSH32 0x8C379A000000000000000000000000000000000000000000000000000000000 DUP2 MSTORE PUSH1 0x4 ADD PUSH2 0x7B5 SWAP1 PUSH2 0xF69 JUMP JUMPDEST PUSH1 0x40 MLOAD DUP1 SWAP2 SUB SWAP1 REVERT JUMPDEST PUSH2 0x7D2 PUSH8 0x1B81AEDD86B5E1F PUSH1 0xC0 SHL PUSH2 0xAE2 JUMP JUMPDEST PUSH2 0x7E6 PUSH8 0xACDBAC9743C60260 PUSH1 0xC0 SHL PUSH2 0xAE2 JUMP JUMPDEST PUSH2 0x7FA PUSH8 0xE0D5284AC3B23000 PUSH1 0xC0 SHL PUSH2 0xAE2 JUMP JUMPDEST PUSH2 0x80E PUSH8 0xA0CF3AA0D901D5FD PUSH1 0xC0 SHL PUSH2 0xAE2 JUMP JUMPDEST PUSH1 0xA PUSH1 0x0 SWAP1 SLOAD SWAP1 PUSH2 0x100 EXP SWAP1 DIV PUSH1 0xFF AND ISZERO PUSH2 0x85E JUMPI PUSH1 0x40 MLOAD PUSH32 0x8C379A000000000000000000000000000000000000000000000000000000000 DUP2 MSTORE PUSH1 0x4 ADD PUSH2 0x855 SWAP1 PUSH2 0xC82 JUMP JUMPDEST PUSH1 0x40 MLOAD DUP1 SWAP2 SUB SWAP1 REVERT JUMPDEST PUSH2 0x872 PUSH8 0x26E3ED72651BF1D9 PUSH1 0xC0 SHL PUSH2 0xAE2 JUMP JUMPDEST PUSH2 0x886 PUSH8 0xCB445B1361EB41C0 PUSH1 0xC0 SHL PUSH2 0xAE2 JUMP JUMPDEST PUSH1 0x1 PUSH1 0xA PUSH1 0x0 PUSH2 0x100 EXP DUP2 SLOAD DUP2 PUSH1 0xFF MUL NOT AND SWAP1 DUP4 ISZERO ISZERO MUL OR SWAP1 SSTORE POP PUSH2 0x8B5 PUSH8 0x871755EB0D680DD4 PUSH1 0xC0 SHL PUSH2 0xAE2 JUMP JUMPDEST PUSH2 0x8C9 PUSH8 0xBA51EC04A06BC3D6 PUSH1 0xC0 SHL PUSH2 0xAE2 JUMP JUMPDEST PUSH1 0x1 PUSH1 0x0 SWAP1 SLOAD SWAP1 PUSH2 0x100 EXP SWAP1 DIV PUSH20 0xFFFFFFFFFFFFFFFFFFFFFFFFFFFFFFFFFFFFFFFF AND PUSH20 0xFFFFFFFFFFFFFFFFFFFFFFFFFFFFFFFFFFFFFFFF AND PUSH4 0x42842E0E ADDRESS PUSH1 0x0 DUP1 SLOAD SWAP1 PUSH2 0x100 EXP SWAP1 DIV PUSH20 0xFFFFFFFFFFFFFFFFFFFFFFFFFFFFFFFFFFFFFFFF AND PUSH1 0x2 SLOAD PUSH1 0x40 MLOAD DUP5 PUSH4 0xFFFFFFFF AND PUSH1 0xE0 SHL DUP2 MSTORE PUSH1 0x4 ADD PUSH2 0x94A SWAP4 SWAP3 SWAP2 SWAP1 PUSH2 0xFAA JUMP JUMPDEST PUSH1 0x0 PUSH1 0x40 MLOAD DUP1 DUP4 SUB DUP2 PUSH1 0x0 DUP8 DUP1 EXTCODESIZE ISZERO DUP1 ISZERO PUSH2 0x964 JUMPI PUSH1 0x0 DUP1 REVERT JUMPDEST POP GAS CALL ISZERO DUP1 ISZERO PUSH2 0x978 JUMPI RETURNDATASIZE PUSH1 0x0 DUP1 RETURNDATACOPY RETURNDATASIZE PUSH1 0x0 REVERT JUMPDEST POP POP POP POP JUMP JUMPDEST PUSH1 0x9 SLOAD DUP2 JUMP JUMPDEST PUSH1 0x1 PUSH1 0x0 SWAP1 SLOAD SWAP1 PUSH2 0x100 EXP SWAP1 DIV PUSH20 0xFFFFFFFFFFFFFFFFFFFFFFFFFFFFFFFFFFFFFFFF AND DUP2 JUMP JUMPDEST PUSH1 0x5 SLOAD DUP2 JUMP JUMPDEST PUSH1 0x3 SLOAD DUP2 JUMP JUMPDEST PUSH1 0x7 SLOAD DUP2 JUMP JUMPDEST PUSH1 0x0 PUSH2 0x9D2 PUSH8 0xC750622344DB5018 PUSH1 0xC0 SHL PUSH2 0xAE2 JUMP JUMPDEST PUSH2 0x9E6 PUSH8 0x5ABB95BE611BE714 PUSH1 0xC0 SHL PUSH2 0xAE2 JUMP JUMPDEST PUSH2 0x9FA PUSH8 0x2087769C6072FBDD PUSH1 0xC0 SHL PUSH2 0xAE2 JUMP JUMPDEST PUSH1 0x0 PUSH1 0x7 SLOAD NUMBER PUSH2 0xA0A SWAP2 SWAP1 PUSH2 0xD63 JUMP JUMPDEST SWAP1 POP PUSH2 0xA20 PUSH8 0xDF79FCC9932F8821 PUSH1 0xC0 SHL PUSH2 0xAE2 JUMP JUMPDEST PUSH2 0xA34 PUSH8 0xDF61D3E5CC90710C PUSH1 0xC0 SHL PUSH2 0xAE2 JUMP JUMPDEST PUSH1 0x4 SLOAD DUP2 LT PUSH2 0xA84 JUMPI PUSH2 0xA51 PUSH8 0xEC0C79F7A57BC7DF PUSH1 0xC0 SHL PUSH2 0xAE2 JUMP JUMPDEST PUSH2 0xA65 PUSH8 0xF8B4B7B6294A9FF7 PUSH1 0xC0 SHL PUSH2 0xAE2 JUMP JUMPDEST PUSH2 0xA79 PUSH8 0xDC697C16961887B1 PUSH1 0xC0 SHL PUSH2 0xAE2 JUMP JUMPDEST PUSH1 0x3 SLOAD SWAP2 POP POP PUSH2 0xADF JUMP JUMPDEST PUSH2 0xA98 PUSH8 0x658C5044D933BBE3 PUSH1 0xC0 SHL PUSH2 0xAE2 JUMP JUMPDEST PUSH2 0xAAC PUSH8 0x3A71AAC78D21A46F PUSH1 0xC0 SHL PUSH2 0xAE2 JUMP JUMPDEST PUSH2 0xAC0 PUSH8 0x66A7601EC09A47D7 PUSH1 0xC0 SHL PUSH2 0xAE2 JUMP JUMPDEST PUSH1 0x5 SLOAD DUP2 PUSH2 0xACE SWAP2 SWAP1 PUSH2 0xDCB JUMP JUMPDEST PUSH1 0x6 SLOAD PUSH2 0xADB SWAP2 SWAP1 PUSH2 0xD63 JUMP JUMPDEST SWAP2 POP POP JUMPDEST SWAP1 JUMP JUMPDEST POP JUMP JUMPDEST PUSH1 0x0 PUSH20 0xFFFFFFFFFFFFFFFFFFFFFFFFFFFFFFFFFFFFFFFF DUP3 AND SWAP1 POP SWAP2 SWAP1 POP JUMP JUMPDEST PUSH1 0x0 PUSH2 0xB10 DUP3 PUSH2 0xAE5 JUMP JUMPDEST SWAP1 POP SWAP2 SWAP1 POP JUMP JUMPDEST PUSH2 0xB20 DUP2 PUSH2 0xB05 JUMP JUMPDEST DUP3 MSTORE POP POP JUMP JUMPDEST PUSH1 0x0 PUSH1 0x20 DUP3 ADD SWAP1 POP PUSH2 0xB3B PUSH1 0x0 DUP4 ADD DUP5 PUSH2 0xB17 JUMP JUMPDEST SWAP3 SWAP2 POP POP JUMP JUMPDEST PUSH1 0x0 DUP2 SWAP1 POP SWAP2 SWAP1 POP JUMP JUMPDEST PUSH2 0xB54 DUP2 PUSH2 0xB41 JUMP JUMPDEST DUP3 MSTORE POP POP JUMP JUMPDEST PUSH1 0x0 PUSH1 0x20 DUP3 ADD SWAP1 POP PUSH2 0xB6F PUSH1 0x0 DUP4 ADD DUP5 PUSH2 0xB4B JUMP JUMPDEST SWAP3 SWAP2 POP POP JUMP JUMPDEST PUSH1 0x0 DUP2 ISZERO ISZERO SWAP1 POP SWAP2 SWAP1 POP JUMP JUMPDEST PUSH2 0xB8A DUP2 PUSH2 0xB75 JUMP JUMPDEST DUP3 MSTORE POP POP JUMP JUMPDEST PUSH1 0x0 PUSH1 0x20 DUP3 ADD SWAP1 POP PUSH2 0xBA5 PUSH1 0x0 DUP4 ADD DUP5 PUSH2 0xB81 JUMP JUMPDEST SWAP3 SWAP2 POP POP JUMP JUMPDEST PUSH1 0x0 DUP2 SWAP1 POP SWAP2 SWAP1 POP JUMP JUMPDEST PUSH1 0x0 PUSH2 0xBD0 PUSH2 0xBCB PUSH2 0xBC6 DUP5 PUSH2 0xAE5 JUMP JUMPDEST PUSH2 0xBAB JUMP JUMPDEST PUSH2 0xAE5 JUMP JUMPDEST SWAP1 POP SWAP2 SWAP1 POP JUMP JUMPDEST PUSH1 0x0 PUSH2 0xBE2 DUP3 PUSH2 0xBB5 JUMP JUMPDEST SWAP1 POP SWAP2 SWAP1 POP JUMP JUMPDEST PUSH1 0x0 PUSH2 0xBF4 DUP3 PUSH2 0xBD7 JUMP JUMPDEST SWAP1 POP SWAP2 SWAP1 POP JUMP JUMPDEST PUSH2 0xC04 DUP2 PUSH2 0xBE9 JUMP JUMPDEST DUP3 MSTORE POP POP JUMP JUMPDEST PUSH1 0x0 PUSH1 0x20 DUP3 ADD SWAP1 POP PUSH2 0xC1F PUSH1 0x0 DUP4 ADD DUP5 PUSH2 0xBFB JUMP JUMPDEST SWAP3 SWAP2 POP POP JUMP JUMPDEST PUSH1 0x0 DUP3 DUP3 MSTORE PUSH1 0x20 DUP3 ADD SWAP1 POP SWAP3 SWAP2 POP POP JUMP JUMPDEST PUSH32 0x41756374696F6E2068617320616C726561647920656E64656400000000000000 PUSH1 0x0 DUP3 ADD MSTORE POP JUMP JUMPDEST PUSH1 0x0 PUSH2 0xC6C PUSH1 0x19 DUP4 PUSH2 0xC25 JUMP JUMPDEST SWAP2 POP PUSH2 0xC77 DUP3 PUSH2 0xC36 JUMP JUMPDEST PUSH1 0x20 DUP3 ADD SWAP1 POP SWAP2 SWAP1 POP JUMP JUMPDEST PUSH1 0x0 PUSH1 0x20 DUP3 ADD SWAP1 POP DUP2 DUP2 SUB PUSH1 0x0 DUP4 ADD MSTORE PUSH2 0xC9B DUP2 PUSH2 0xC5F JUMP JUMPDEST SWAP1 POP SWAP2 SWAP1 POP JUMP JUMPDEST PUSH32 0x41756374696F6E2068617320657863656564656420746865206D6178696D756D PUSH1 0x0 DUP3 ADD MSTORE PUSH32 0x206E756D626572206F6620626C6F636B73000000000000000000000000000000 PUSH1 0x20 DUP3 ADD MSTORE POP JUMP JUMPDEST PUSH1 0x0 PUSH2 0xCFE PUSH1 0x31 DUP4 PUSH2 0xC25 JUMP JUMPDEST SWAP2 POP PUSH2 0xD09 DUP3 PUSH2 0xCA2 JUMP JUMPDEST PUSH1 0x40 DUP3 ADD SWAP1 POP SWAP2 SWAP1 POP JUMP JUMPDEST PUSH1 0x0 PUSH1 0x20 DUP3 ADD SWAP1 POP DUP2 DUP2 SUB PUSH1 0x0 DUP4 ADD MSTORE PUSH2 0xD2D DUP2 PUSH2 0xCF1 JUMP JUMPDEST SWAP1 POP SWAP2 SWAP1 POP JUMP JUMPDEST PUSH32 0x4E487B7100000000000000000000000000000000000000000000000000000000 PUSH1 0x0 MSTORE PUSH1 0x11 PUSH1 0x4 MSTORE PUSH1 0x24 PUSH1 0x0 REVERT JUMPDEST PUSH1 0x0 PUSH2 0xD6E DUP3 PUSH2 0xB41 JUMP JUMPDEST SWAP2 POP PUSH2 0xD79 DUP4 PUSH2 0xB41 JUMP JUMPDEST SWAP3 POP DUP3 DUP3 SUB SWAP1 POP DUP2 DUP2 GT ISZERO PUSH2 0xD91 JUMPI PUSH2 0xD90 PUSH2 0xD34 JUMP JUMPDEST JUMPDEST SWAP3 SWAP2 POP POP JUMP JUMPDEST PUSH1 0x0 PUSH2 0xDA2 DUP3 PUSH2 0xB41 JUMP JUMPDEST SWAP2 POP PUSH2 0xDAD DUP4 PUSH2 0xB41 JUMP JUMPDEST SWAP3 POP DUP3 DUP3 ADD SWAP1 POP DUP1 DUP3 GT ISZERO PUSH2 0xDC5 JUMPI PUSH2 0xDC4 PUSH2 0xD34 JUMP JUMPDEST JUMPDEST SWAP3 SWAP2 POP POP JUMP JUMPDEST PUSH1 0x0 PUSH2 0xDD6 DUP3 PUSH2 0xB41 JUMP JUMPDEST SWAP2 POP PUSH2 0xDE1 DUP4 PUSH2 0xB41 JUMP JUMPDEST SWAP3 POP DUP3 DUP3 MUL PUSH2 0xDEF DUP2 PUSH2 0xB41 JUMP JUMPDEST SWAP2 POP DUP3 DUP3 DIV DUP5 EQ DUP4 ISZERO OR PUSH2 0xE06 JUMPI PUSH2 0xE05 PUSH2 0xD34 JUMP JUMPDEST JUMPDEST POP SWAP3 SWAP2 POP POP JUMP JUMPDEST PUSH32 0x42696420616D6F756E74206973206C657373207468616E207468652063757272 PUSH1 0x0 DUP3 ADD MSTORE PUSH32 0x656E742070726963650000000000000000000000000000000000000000000000 PUSH1 0x20 DUP3 ADD MSTORE POP JUMP JUMPDEST PUSH1 0x0 PUSH2 0xE69 PUSH1 0x29 DUP4 PUSH2 0xC25 JUMP JUMPDEST SWAP2 POP PUSH2 0xE74 DUP3 PUSH2 0xE0D JUMP JUMPDEST PUSH1 0x40 DUP3 ADD SWAP1 POP SWAP2 SWAP1 POP JUMP JUMPDEST PUSH1 0x0 PUSH1 0x20 DUP3 ADD SWAP1 POP DUP2 DUP2 SUB PUSH1 0x0 DUP4 ADD MSTORE PUSH2 0xE98 DUP2 PUSH2 0xE5C JUMP JUMPDEST SWAP1 POP SWAP2 SWAP1 POP JUMP JUMPDEST PUSH1 0x0 PUSH2 0xEAA DUP3 PUSH2 0xAE5 JUMP JUMPDEST SWAP1 POP SWAP2 SWAP1 POP JUMP JUMPDEST PUSH2 0xEBA DUP2 PUSH2 0xE9F JUMP JUMPDEST DUP3 MSTORE POP POP JUMP JUMPDEST PUSH1 0x0 PUSH1 0x60 DUP3 ADD SWAP1 POP PUSH2 0xED5 PUSH1 0x0 DUP4 ADD DUP7 PUSH2 0xEB1 JUMP JUMPDEST PUSH2 0xEE2 PUSH1 0x20 DUP4 ADD DUP6 PUSH2 0xEB1 JUMP JUMPDEST PUSH2 0xEEF PUSH1 0x40 DUP4 ADD DUP5 PUSH2 0xB4B JUMP JUMPDEST SWAP5 SWAP4 POP POP POP POP JUMP JUMPDEST PUSH32 0x4F6E6C79207468652073656C6C65722063616E2063616E63656C207468652061 PUSH1 0x0 DUP3 ADD MSTORE PUSH32 0x756374696F6E0000000000000000000000000000000000000000000000000000 PUSH1 0x20 DUP3 ADD MSTORE POP JUMP JUMPDEST PUSH1 0x0 PUSH2 0xF53 PUSH1 0x26 DUP4 PUSH2 0xC25 JUMP JUMPDEST SWAP2 POP PUSH2 0xF5E DUP3 PUSH2 0xEF7 JUMP JUMPDEST PUSH1 0x40 DUP3 ADD SWAP1 POP SWAP2 SWAP1 POP JUMP JUMPDEST PUSH1 0x0 PUSH1 0x20 DUP3 ADD SWAP1 POP DUP2 DUP2 SUB PUSH1 0x0 DUP4 ADD MSTORE PUSH2 0xF82 DUP2 PUSH2 0xF46 JUMP JUMPDEST SWAP1 POP SWAP2 SWAP1 POP JUMP JUMPDEST PUSH1 0x0 PUSH2 0xF94 DUP3 PUSH2 0xBD7 JUMP JUMPDEST SWAP1 POP SWAP2 SWAP1 POP JUMP JUMPDEST PUSH2 0xFA4 DUP2 PUSH2 0xF89 JUMP JUMPDEST DUP3 MSTORE POP POP JUMP JUMPDEST PUSH1 0x0 PUSH1 0x60 DUP3 ADD SWAP1 POP PUSH2 0xFBF PUSH1 0x0 DUP4 ADD DUP7 PUSH2 0xEB1 JUMP JUMPDEST PUSH2 0xFCC PUSH1 0x20 DUP4 ADD DUP6 PUSH2 0xF9B JUMP JUMPDEST PUSH2 0xFD9 PUSH1 0x40 DUP4 ADD DUP5 PUSH2 0xB4B JUMP JUMPDEST SWAP5 SWAP4 POP POP POP POP JUMP INVALID LOG2 PUSH5 0x6970667358 0x22 SLT KECCAK256 CALL ORIGIN PUSH5 0xA013BB98B5 LOG1 LOG0 KECCAK256 PUSH12 0xC3323453965EA1BD6907B3DF BYTE 0x26 0xCF DUP16 BALANCE STATICCALL 0xE 0xA9 PUSH5 0x736F6C6343 STOP ADDMOD SLT STOP CALLER "},"methodIdentifiers":{"auctionEndTime()":"4b449cba","auctionEnded()":"86433374","auctionStartTime()":"eb54f9ec","bid()":"1998aeef","cancelAuction()":"8fa8b790","currentPrice()":"9d1b464a","getCurrentPrice()":"eb91d37e","initialPrice()":"1d0806ae","nftToken()":"d06fcba8","nftTokenId()":"7e830574","numBlocksAuctionOpen()":"3103ea62","offerPriceDecrement()":"d3642a88","reservePrice()":"db2e1eed","seller()":"08551a53"}}}}}