{
  "_format": "hh-sol-artifact-1",
  "contractName": "BasicDutchAuction",
  "sourceName": "contracts/BasicDutchAuction.sol",
  "abi": [
    {
      "inputs": [
        {
          "internalType": "uint256",
          "name": "_reservePrice",
          "type": "uint256"
        },
        {
          "internalType": "uint256",
          "name": "_numBlocksAuctionOpen",
          "type": "uint256"
        },
        {
          "internalType": "uint256",
          "name": "_offerPriceDecrement",
          "type": "uint256"
        }
      ],
      "stateMutability": "nonpayable",
      "type": "constructor"
    },
    {
      "anonymous": false,
      "inputs": [
        {
          "indexed": true,
          "internalType": "address",
          "name": "bidder",
          "type": "address"
        },
        {
          "indexed": false,
          "internalType": "uint256",
          "name": "refundAmount",
          "type": "uint256"
        },
        {
          "indexed": false,
          "internalType": "uint256",
          "name": "contractBalance",
          "type": "uint256"
        }
      ],
      "name": "RefundInfo",
      "type": "event"
    },
    {
      "inputs": [],
      "name": "auctionEndTime",
      "outputs": [
        {
          "internalType": "uint256",
          "name": "",
          "type": "uint256"
        }
      ],
      "stateMutability": "view",
      "type": "function"
    },
    {
      "inputs": [],
      "name": "auctionEnded",
      "outputs": [
        {
          "internalType": "bool",
          "name": "",
          "type": "bool"
        }
      ],
      "stateMutability": "view",
      "type": "function"
    },
    {
      "inputs": [],
      "name": "auctionStartTime",
      "outputs": [
        {
          "internalType": "uint256",
          "name": "",
          "type": "uint256"
        }
      ],
      "stateMutability": "view",
      "type": "function"
    },
    {
      "inputs": [],
      "name": "bid",
      "outputs": [],
      "stateMutability": "payable",
      "type": "function"
    },
    {
      "inputs": [],
      "name": "currentPrice",
      "outputs": [
        {
          "internalType": "uint256",
          "name": "",
          "type": "uint256"
        }
      ],
      "stateMutability": "view",
      "type": "function"
    },
    {
      "inputs": [],
      "name": "initialPrice",
      "outputs": [
        {
          "internalType": "uint256",
          "name": "",
          "type": "uint256"
        }
      ],
      "stateMutability": "view",
      "type": "function"
    },
    {
      "inputs": [],
      "name": "numBlocksAuctionOpen",
      "outputs": [
        {
          "internalType": "uint256",
          "name": "",
          "type": "uint256"
        }
      ],
      "stateMutability": "view",
      "type": "function"
    },
    {
      "inputs": [],
      "name": "offerPriceDecrement",
      "outputs": [
        {
          "internalType": "uint256",
          "name": "",
          "type": "uint256"
        }
      ],
      "stateMutability": "view",
      "type": "function"
    },
    {
      "inputs": [],
      "name": "reservePrice",
      "outputs": [
        {
          "internalType": "uint256",
          "name": "",
          "type": "uint256"
        }
      ],
      "stateMutability": "view",
      "type": "function"
    },
    {
      "inputs": [],
      "name": "seller",
      "outputs": [
        {
          "internalType": "address payable",
          "name": "",
          "type": "address"
        }
      ],
      "stateMutability": "view",
      "type": "function"
    }
  ],
  "bytecode": "0x60806040523480156200001157600080fd5b5060405162000a6038038062000a60833981810160405281019062000037919062000268565b620000536706dfe361a130d92660c01b6200022560201b60201c565b6200006f67f9f44d552f4cadae60c01b6200022560201b60201c565b336000806101000a81548173ffffffffffffffffffffffffffffffffffffffff021916908373ffffffffffffffffffffffffffffffffffffffff160217905550620000cb67d414921fb643639a60c01b6200022560201b60201c565b82600181905550620000ee67a0d068c7c4741fa760c01b6200022560201b60201c565b816002819055506200011167e41f715ffa47f2ef60c01b6200022560201b60201c565b806003819055506200013467d70afd65b084bbe360c01b6200022560201b60201c565b436005819055506200015767f691a2167fa8229660c01b6200022560201b60201c565b600254600554620001699190620002f3565b6006819055506200018b672e069a2dc21e3ede60c01b6200022560201b60201c565b60035460016002546200019f91906200032e565b620001ab919062000369565b600154620001ba9190620002f3565b600481905550620001dc67a082f71eba6eaee360c01b6200022560201b60201c565b600454600781905550620002016791fa69f5821f698060c01b6200022560201b60201c565b6000600860006101000a81548160ff021916908315150217905550505050620003b4565b50565b600080fd5b6000819050919050565b62000242816200022d565b81146200024e57600080fd5b50565b600081519050620002628162000237565b92915050565b60008060006060848603121562000284576200028362000228565b5b6000620002948682870162000251565b9350506020620002a78682870162000251565b9250506040620002ba8682870162000251565b9150509250925092565b7f4e487b7100000000000000000000000000000000000000000000000000000000600052601160045260246000fd5b600062000300826200022d565b91506200030d836200022d565b9250828201905080821115620003285762000327620002c4565b5b92915050565b60006200033b826200022d565b915062000348836200022d565b9250828203905081811115620003635762000362620002c4565b5b92915050565b600062000376826200022d565b915062000383836200022d565b925082820262000393816200022d565b91508282048414831517620003ad57620003ac620002c4565b5b5092915050565b61069c80620003c46000396000f3fe6080604052600436106100915760003560e01c80638643337411610059578063864333741461014c5780639d1b464a14610177578063d3642a88146101a2578063db2e1eed146101cd578063eb54f9ec146101f857610091565b806308551a53146100965780631998aeef146100c15780631d0806ae146100cb5780633103ea62146100f65780634b449cba14610121575b600080fd5b3480156100a257600080fd5b506100ab610223565b6040516100b891906104d2565b60405180910390f35b6100c9610247565b005b3480156100d757600080fd5b506100e0610451565b6040516100ed9190610506565b60405180910390f35b34801561010257600080fd5b5061010b610457565b6040516101189190610506565b60405180910390f35b34801561012d57600080fd5b5061013661045d565b6040516101439190610506565b60405180910390f35b34801561015857600080fd5b50610161610463565b60405161016e919061053c565b60405180910390f35b34801561018357600080fd5b5061018c610476565b6040516101999190610506565b60405180910390f35b3480156101ae57600080fd5b506101b761047c565b6040516101c49190610506565b60405180910390f35b3480156101d957600080fd5b506101e2610482565b6040516101ef9190610506565b60405180910390f35b34801561020457600080fd5b5061020d610488565b60405161021a9190610506565b60405180910390f35b60008054906101000a900473ffffffffffffffffffffffffffffffffffffffff1681565b61025b67e41c765fefc9affd60c01b61048e565b61026f67463f440e0cd9dbfd60c01b61048e565b6102826684841744ba636660c01b61048e565b610296670b24ce234b2e73a460c01b61048e565b600860009054906101000a900460ff16156102e6576040517f08c379a00000000000000000000000000000000000000000000000000000000081526004016102dd906105b4565b60405180910390fd5b6102fa6778e332ccd0d3943860c01b61048e565b61030e67a20e18665aed8ac560c01b61048e565b61032267514ce381e7eed34e60c01b61048e565b61033667ad9459d701f0d35360c01b61048e565b60075434101561037b576040517f08c379a000000000000000000000000000000000000000000000000000000000815260040161037290610646565b60405180910390fd5b61038f6733ffd8ee5f2c9ca060c01b61048e565b6103a36767f92265542ad0ce60c01b61048e565b6103b767c359bf0e63ca87f360c01b61048e565b60008054906101000a900473ffffffffffffffffffffffffffffffffffffffff1673ffffffffffffffffffffffffffffffffffffffff166108fc6007549081150290604051600060405180830381858888f1935050505015801561041f573d6000803e3d6000fd5b5061043467761c002b3f88f6e460c01b61048e565b6001600860006101000a81548160ff021916908315150217905550565b60045481565b60025481565b60065481565b600860009054906101000a900460ff1681565b60075481565b60035481565b60015481565b60055481565b50565b600073ffffffffffffffffffffffffffffffffffffffff82169050919050565b60006104bc82610491565b9050919050565b6104cc816104b1565b82525050565b60006020820190506104e760008301846104c3565b92915050565b6000819050919050565b610500816104ed565b82525050565b600060208201905061051b60008301846104f7565b92915050565b60008115159050919050565b61053681610521565b82525050565b6000602082019050610551600083018461052d565b92915050565b600082825260208201905092915050565b7f41756374696f6e2068617320616c726561647920656e64656400000000000000600082015250565b600061059e601983610557565b91506105a982610568565b602082019050919050565b600060208201905081810360008301526105cd81610591565b9050919050565b7f42696420616d6f756e74206973206c657373207468616e20746865206375727260008201527f656e742070726963650000000000000000000000000000000000000000000000602082015250565b6000610630602983610557565b915061063b826105d4565b604082019050919050565b6000602082019050818103600083015261065f81610623565b905091905056fea2646970667358221220f39410e280171c585ee449482141d6db52c8beff72e263f173178b19b5e9b3df64736f6c63430008120033",
  "linkReferences": {},
  "deployedLinkReferences": {}
}