{
  "_format": "hh-sol-artifact-1",
  "contractName": "NFTDutchAuction",
  "sourceName": "contracts/NFTDutchAuction.sol",
  "abi": [
    {
      "inputs": [
        {
          "internalType": "address",
          "name": "_nftTokenAddress",
          "type": "address"
        },
        {
          "internalType": "uint256",
          "name": "_nftTokenId",
          "type": "uint256"
        },
        {
          "internalType": "uint256",
          "name": "_reservePrice",
          "type": "uint256"
        },
        {
          "internalType": "uint256",
          "name": "_numBlocksAuctionOpen",
          "type": "uint256"
        },
        {
          "internalType": "uint256",
          "name": "_offerPriceDecrement",
          "type": "uint256"
        }
      ],
      "stateMutability": "nonpayable",
      "type": "constructor"
    },
    {
      "inputs": [],
      "name": "auctionEndTime",
      "outputs": [
        {
          "internalType": "uint256",
          "name": "",
          "type": "uint256"
        }
      ],
      "stateMutability": "view",
      "type": "function"
    },
    {
      "inputs": [],
      "name": "auctionEnded",
      "outputs": [
        {
          "internalType": "bool",
          "name": "",
          "type": "bool"
        }
      ],
      "stateMutability": "view",
      "type": "function"
    },
    {
      "inputs": [],
      "name": "auctionStartTime",
      "outputs": [
        {
          "internalType": "uint256",
          "name": "",
          "type": "uint256"
        }
      ],
      "stateMutability": "view",
      "type": "function"
    },
    {
      "inputs": [],
      "name": "bid",
      "outputs": [],
      "stateMutability": "payable",
      "type": "function"
    },
    {
      "inputs": [],
      "name": "cancelAuction",
      "outputs": [],
      "stateMutability": "nonpayable",
      "type": "function"
    },
    {
      "inputs": [],
      "name": "currentPrice",
      "outputs": [
        {
          "internalType": "uint256",
          "name": "",
          "type": "uint256"
        }
      ],
      "stateMutability": "view",
      "type": "function"
    },
    {
      "inputs": [],
      "name": "getCurrentPrice",
      "outputs": [
        {
          "internalType": "uint256",
          "name": "",
          "type": "uint256"
        }
      ],
      "stateMutability": "view",
      "type": "function"
    },
    {
      "inputs": [],
      "name": "initialPrice",
      "outputs": [
        {
          "internalType": "uint256",
          "name": "",
          "type": "uint256"
        }
      ],
      "stateMutability": "view",
      "type": "function"
    },
    {
      "inputs": [],
      "name": "nftToken",
      "outputs": [
        {
          "internalType": "contract IERC721",
          "name": "",
          "type": "address"
        }
      ],
      "stateMutability": "view",
      "type": "function"
    },
    {
      "inputs": [],
      "name": "nftTokenId",
      "outputs": [
        {
          "internalType": "uint256",
          "name": "",
          "type": "uint256"
        }
      ],
      "stateMutability": "view",
      "type": "function"
    },
    {
      "inputs": [],
      "name": "numBlocksAuctionOpen",
      "outputs": [
        {
          "internalType": "uint256",
          "name": "",
          "type": "uint256"
        }
      ],
      "stateMutability": "view",
      "type": "function"
    },
    {
      "inputs": [],
      "name": "offerPriceDecrement",
      "outputs": [
        {
          "internalType": "uint256",
          "name": "",
          "type": "uint256"
        }
      ],
      "stateMutability": "view",
      "type": "function"
    },
    {
      "inputs": [],
      "name": "reservePrice",
      "outputs": [
        {
          "internalType": "uint256",
          "name": "",
          "type": "uint256"
        }
      ],
      "stateMutability": "view",
      "type": "function"
    },
    {
      "inputs": [],
      "name": "seller",
      "outputs": [
        {
          "internalType": "address payable",
          "name": "",
          "type": "address"
        }
      ],
      "stateMutability": "view",
      "type": "function"
    }
  ],
  "bytecode": "0x60806040523480156200001157600080fd5b50604051620014ec380380620014ec83398181016040528101906200003791906200034d565b6200005266ea5ed1bb915ae860c01b620002a560201b60201c565b6200006e67db6c2976e3ef912c60c01b620002a560201b60201c565b336000806101000a81548173ffffffffffffffffffffffffffffffffffffffff021916908373ffffffffffffffffffffffffffffffffffffffff160217905550620000ca67401fb632cbd0445860c01b620002a560201b60201c565b84600160006101000a81548173ffffffffffffffffffffffffffffffffffffffff021916908373ffffffffffffffffffffffffffffffffffffffff1602179055506200012767d0225c2c424d319460c01b620002a560201b60201c565b836002819055506200014a679c0de97e2499189460c01b620002a560201b60201c565b826003819055506200016d673ab93ec4372e02b460c01b620002a560201b60201c565b816004819055506200019067c78bbfd25ee4479b60c01b620002a560201b60201c565b80600581905550620001b2666304e56f11d6bc60c01b620002a560201b60201c565b43600781905550620001d567de415bc1cf7e63f960c01b620002a560201b60201c565b600454600754620001e7919062000404565b6008819055506200020967b316268ab77bea2160c01b620002a560201b60201c565b60016004546200021a91906200043f565b6005546200022991906200047a565b60035462000238919062000404565b6006819055506200025a67bd984d850a97a29460c01b620002a560201b60201c565b6006546009819055506200027f6746ec70d3a8540ca660c01b620002a560201b60201c565b6000600a60006101000a81548160ff0219169083151502179055505050505050620004c5565b50565b600080fd5b600073ffffffffffffffffffffffffffffffffffffffff82169050919050565b6000620002da82620002ad565b9050919050565b620002ec81620002cd565b8114620002f857600080fd5b50565b6000815190506200030c81620002e1565b92915050565b6000819050919050565b620003278162000312565b81146200033357600080fd5b50565b60008151905062000347816200031c565b92915050565b600080600080600060a086880312156200036c576200036b620002a8565b5b60006200037c88828901620002fb565b95505060206200038f8882890162000336565b9450506040620003a28882890162000336565b9350506060620003b58882890162000336565b9250506080620003c88882890162000336565b9150509295509295909350565b7f4e487b7100000000000000000000000000000000000000000000000000000000600052601160045260246000fd5b6000620004118262000312565b91506200041e8362000312565b9250828201905080821115620004395762000438620003d5565b5b92915050565b60006200044c8262000312565b9150620004598362000312565b9250828203905081811115620004745762000473620003d5565b5b92915050565b6000620004878262000312565b9150620004948362000312565b9250828202620004a48162000312565b91508282048414831517620004be57620004bd620003d5565b5b5092915050565b61101780620004d56000396000f3fe6080604052600436106100dd5760003560e01c80638fa8b7901161007f578063d3642a8811610059578063d3642a881461025b578063db2e1eed14610286578063eb54f9ec146102b1578063eb91d37e146102dc576100dd565b80638fa8b790146101ee5780639d1b464a14610205578063d06fcba814610230576100dd565b80633103ea62116100bb5780633103ea62146101425780634b449cba1461016d5780637e8305741461019857806386433374146101c3576100dd565b806308551a53146100e25780631998aeef1461010d5780631d0806ae14610117575b600080fd5b3480156100ee57600080fd5b506100f7610307565b6040516101049190610b26565b60405180910390f35b61011561032b565b005b34801561012357600080fd5b5061012c6106b5565b6040516101399190610b5a565b60405180910390f35b34801561014e57600080fd5b506101576106bb565b6040516101649190610b5a565b60405180910390f35b34801561017957600080fd5b506101826106c1565b60405161018f9190610b5a565b60405180910390f35b3480156101a457600080fd5b506101ad6106c7565b6040516101ba9190610b5a565b60405180910390f35b3480156101cf57600080fd5b506101d86106cd565b6040516101e59190610b90565b60405180910390f35b3480156101fa57600080fd5b506102036106e0565b005b34801561021157600080fd5b5061021a61097e565b6040516102279190610b5a565b60405180910390f35b34801561023c57600080fd5b50610245610984565b6040516102529190610c0a565b60405180910390f35b34801561026757600080fd5b506102706109aa565b60405161027d9190610b5a565b60405180910390f35b34801561029257600080fd5b5061029b6109b0565b6040516102a89190610b5a565b60405180910390f35b3480156102bd57600080fd5b506102c66109b6565b6040516102d39190610b5a565b60405180910390f35b3480156102e857600080fd5b506102f16109bc565b6040516102fe9190610b5a565b60405180910390f35b60008054906101000a900473ffffffffffffffffffffffffffffffffffffffff1681565b61033f6799f0576b2ea004de60c01b610ae2565b61035367f6fc6e1bad2d08f860c01b610ae2565b610367671d71779c6ea82ff660c01b610ae2565b61037b67253ebae0949896ef60c01b610ae2565b600a60009054906101000a900460ff16156103cb576040517f08c379a00000000000000000000000000000000000000000000000000000000081526004016103c290610c82565b60405180910390fd5b6103df6709f99ff618a2ba2d60c01b610ae2565b6103f36752609f967b86401560c01b610ae2565b6104076732046cc930a99c0f60c01b610ae2565b61041b6797b8613d99559df660c01b610ae2565b600854431115610460576040517f08c379a000000000000000000000000000000000000000000000000000000000815260040161045790610d14565b60405180910390fd5b61047467f98bdc8424f77c6f60c01b610ae2565b610488676aa039098bd112b960c01b610ae2565b61049c6702d5417cbb738ce260c01b610ae2565b6104b067909d81c614d5688e60c01b610ae2565b6005546001600754436104c39190610d63565b6104cd9190610d97565b6104d79190610dcb565b6006546104e49190610d63565b341015610526576040517f08c379a000000000000000000000000000000000000000000000000000000000815260040161051d90610e7f565b60405180910390fd5b61053a67157ffa898d5c5dfd60c01b610ae2565b61054e67e286501a61c6bf7b60c01b610ae2565b61056267015c64042a39a10660c01b610ae2565b60008054906101000a900473ffffffffffffffffffffffffffffffffffffffff1673ffffffffffffffffffffffffffffffffffffffff166108fc349081150290604051600060405180830381858888f193505050501580156105c8573d6000803e3d6000fd5b506105dd6713f62913e6e259e260c01b610ae2565b6105f167d95aa533eee66c0060c01b610ae2565b600160009054906101000a900473ffffffffffffffffffffffffffffffffffffffff1673ffffffffffffffffffffffffffffffffffffffff166342842e0e30336002546040518463ffffffff1660e01b815260040161065293929190610ec0565b600060405180830381600087803b15801561066c57600080fd5b505af1158015610680573d6000803e3d6000fd5b5050505061069867d61703cf500a419960c01b610ae2565b6001600a60006101000a81548160ff021916908315150217905550565b60065481565b60045481565b60085481565b60025481565b600a60009054906101000a900460ff1681565b6106f4679756d023218f771460c01b610ae2565b6107086717e62f9a0a8e958260c01b610ae2565b61071c6770b5f850d9c9a4f360c01b610ae2565b610730677be5563a0c6fb9dd60c01b610ae2565b60008054906101000a900473ffffffffffffffffffffffffffffffffffffffff1673ffffffffffffffffffffffffffffffffffffffff163373ffffffffffffffffffffffffffffffffffffffff16146107be576040517f08c379a00000000000000000000000000000000000000000000000000000000081526004016107b590610f69565b60405180910390fd5b6107d26701b81aedd86b5e1f60c01b610ae2565b6107e667acdbac9743c6026060c01b610ae2565b6107fa67e0d5284ac3b2300060c01b610ae2565b61080e67a0cf3aa0d901d5fd60c01b610ae2565b600a60009054906101000a900460ff161561085e576040517f08c379a000000000000000000000000000000000000000000000000000000000815260040161085590610c82565b60405180910390fd5b6108726726e3ed72651bf1d960c01b610ae2565b61088667cb445b1361eb41c060c01b610ae2565b6001600a60006101000a81548160ff0219169083151502179055506108b567871755eb0d680dd460c01b610ae2565b6108c967ba51ec04a06bc3d660c01b610ae2565b600160009054906101000a900473ffffffffffffffffffffffffffffffffffffffff1673ffffffffffffffffffffffffffffffffffffffff166342842e0e3060008054906101000a900473ffffffffffffffffffffffffffffffffffffffff166002546040518463ffffffff1660e01b815260040161094a93929190610faa565b600060405180830381600087803b15801561096457600080fd5b505af1158015610978573d6000803e3d6000fd5b50505050565b60095481565b600160009054906101000a900473ffffffffffffffffffffffffffffffffffffffff1681565b60055481565b60035481565b60075481565b60006109d267c750622344db501860c01b610ae2565b6109e6675abb95be611be71460c01b610ae2565b6109fa672087769c6072fbdd60c01b610ae2565b600060075443610a0a9190610d63565b9050610a2067df79fcc9932f882160c01b610ae2565b610a3467df61d3e5cc90710c60c01b610ae2565b6004548110610a8457610a5167ec0c79f7a57bc7df60c01b610ae2565b610a6567f8b4b7b6294a9ff760c01b610ae2565b610a7967dc697c16961887b160c01b610ae2565b600354915050610adf565b610a9867658c5044d933bbe360c01b610ae2565b610aac673a71aac78d21a46f60c01b610ae2565b610ac06766a7601ec09a47d760c01b610ae2565b60055481610ace9190610dcb565b600654610adb9190610d63565b9150505b90565b50565b600073ffffffffffffffffffffffffffffffffffffffff82169050919050565b6000610b1082610ae5565b9050919050565b610b2081610b05565b82525050565b6000602082019050610b3b6000830184610b17565b92915050565b6000819050919050565b610b5481610b41565b82525050565b6000602082019050610b6f6000830184610b4b565b92915050565b60008115159050919050565b610b8a81610b75565b82525050565b6000602082019050610ba56000830184610b81565b92915050565b6000819050919050565b6000610bd0610bcb610bc684610ae5565b610bab565b610ae5565b9050919050565b6000610be282610bb5565b9050919050565b6000610bf482610bd7565b9050919050565b610c0481610be9565b82525050565b6000602082019050610c1f6000830184610bfb565b92915050565b600082825260208201905092915050565b7f41756374696f6e2068617320616c726561647920656e64656400000000000000600082015250565b6000610c6c601983610c25565b9150610c7782610c36565b602082019050919050565b60006020820190508181036000830152610c9b81610c5f565b9050919050565b7f41756374696f6e2068617320657863656564656420746865206d6178696d756d60008201527f206e756d626572206f6620626c6f636b73000000000000000000000000000000602082015250565b6000610cfe603183610c25565b9150610d0982610ca2565b604082019050919050565b60006020820190508181036000830152610d2d81610cf1565b9050919050565b7f4e487b7100000000000000000000000000000000000000000000000000000000600052601160045260246000fd5b6000610d6e82610b41565b9150610d7983610b41565b9250828203905081811115610d9157610d90610d34565b5b92915050565b6000610da282610b41565b9150610dad83610b41565b9250828201905080821115610dc557610dc4610d34565b5b92915050565b6000610dd682610b41565b9150610de183610b41565b9250828202610def81610b41565b91508282048414831517610e0657610e05610d34565b5b5092915050565b7f42696420616d6f756e74206973206c657373207468616e20746865206375727260008201527f656e742070726963650000000000000000000000000000000000000000000000602082015250565b6000610e69602983610c25565b9150610e7482610e0d565b604082019050919050565b60006020820190508181036000830152610e9881610e5c565b9050919050565b6000610eaa82610ae5565b9050919050565b610eba81610e9f565b82525050565b6000606082019050610ed56000830186610eb1565b610ee26020830185610eb1565b610eef6040830184610b4b565b949350505050565b7f4f6e6c79207468652073656c6c65722063616e2063616e63656c20746865206160008201527f756374696f6e0000000000000000000000000000000000000000000000000000602082015250565b6000610f53602683610c25565b9150610f5e82610ef7565b604082019050919050565b60006020820190508181036000830152610f8281610f46565b9050919050565b6000610f9482610bd7565b9050919050565b610fa481610f89565b82525050565b6000606082019050610fbf6000830186610eb1565b610fcc6020830185610f9b565b610fd96040830184610b4b565b94935050505056fea2646970667358221220f13264a013bb98b5a1a0206bc3323453965ea1bd6907b3df1a26cf8f31fa0ea964736f6c63430008120033",
  "linkReferences": {},
  "deployedLinkReferences": {}
}