{
  "_format": "hh-sol-artifact-1",
  "contractName": "NFTDutchAuction",
  "sourceName": "contracts/NFTDutchAuction.sol",
  "abi": [
    {
      "inputs": [
        {
          "internalType": "address",
          "name": "_nftTokenAddress",
          "type": "address"
        },
        {
          "internalType": "uint256",
          "name": "_nftTokenId",
          "type": "uint256"
        },
        {
          "internalType": "uint256",
          "name": "_reservePrice",
          "type": "uint256"
        },
        {
          "internalType": "uint256",
          "name": "_numBlocksAuctionOpen",
          "type": "uint256"
        },
        {
          "internalType": "uint256",
          "name": "_offerPriceDecrement",
          "type": "uint256"
        }
      ],
      "stateMutability": "nonpayable",
      "type": "constructor"
    },
    {
      "inputs": [],
      "name": "auctionEndTime",
      "outputs": [
        {
          "internalType": "uint256",
          "name": "",
          "type": "uint256"
        }
      ],
      "stateMutability": "view",
      "type": "function"
    },
    {
      "inputs": [],
      "name": "auctionEnded",
      "outputs": [
        {
          "internalType": "bool",
          "name": "",
          "type": "bool"
        }
      ],
      "stateMutability": "view",
      "type": "function"
    },
    {
      "inputs": [],
      "name": "auctionStartTime",
      "outputs": [
        {
          "internalType": "uint256",
          "name": "",
          "type": "uint256"
        }
      ],
      "stateMutability": "view",
      "type": "function"
    },
    {
      "inputs": [],
      "name": "bid",
      "outputs": [],
      "stateMutability": "payable",
      "type": "function"
    },
    {
      "inputs": [],
      "name": "cancelAuction",
      "outputs": [],
      "stateMutability": "nonpayable",
      "type": "function"
    },
    {
      "inputs": [],
      "name": "currentPrice",
      "outputs": [
        {
          "internalType": "uint256",
          "name": "",
          "type": "uint256"
        }
      ],
      "stateMutability": "view",
      "type": "function"
    },
    {
      "inputs": [],
      "name": "initialPrice",
      "outputs": [
        {
          "internalType": "uint256",
          "name": "",
          "type": "uint256"
        }
      ],
      "stateMutability": "view",
      "type": "function"
    },
    {
      "inputs": [],
      "name": "nftToken",
      "outputs": [
        {
          "internalType": "contract IERC721",
          "name": "",
          "type": "address"
        }
      ],
      "stateMutability": "view",
      "type": "function"
    },
    {
      "inputs": [],
      "name": "nftTokenId",
      "outputs": [
        {
          "internalType": "uint256",
          "name": "",
          "type": "uint256"
        }
      ],
      "stateMutability": "view",
      "type": "function"
    },
    {
      "inputs": [],
      "name": "numBlocksAuctionOpen",
      "outputs": [
        {
          "internalType": "uint256",
          "name": "",
          "type": "uint256"
        }
      ],
      "stateMutability": "view",
      "type": "function"
    },
    {
      "inputs": [],
      "name": "offerPriceDecrement",
      "outputs": [
        {
          "internalType": "uint256",
          "name": "",
          "type": "uint256"
        }
      ],
      "stateMutability": "view",
      "type": "function"
    },
    {
      "inputs": [],
      "name": "reservePrice",
      "outputs": [
        {
          "internalType": "uint256",
          "name": "",
          "type": "uint256"
        }
      ],
      "stateMutability": "view",
      "type": "function"
    },
    {
      "inputs": [],
      "name": "seller",
      "outputs": [
        {
          "internalType": "address payable",
          "name": "",
          "type": "address"
        }
      ],
      "stateMutability": "view",
      "type": "function"
    }
  ],
  "bytecode": "0x60806040523480156200001157600080fd5b5060405162000df538038062000df58339818101604052810190620000379190620001fc565b336000806101000a81548173ffffffffffffffffffffffffffffffffffffffff021916908373ffffffffffffffffffffffffffffffffffffffff16021790555084600160006101000a81548173ffffffffffffffffffffffffffffffffffffffff021916908373ffffffffffffffffffffffffffffffffffffffff1602179055508360028190555082600381905550816004819055508060058190555043600781905550600454600754620000ed9190620002b3565b6008819055506001600454620001049190620002ee565b60055462000113919062000329565b600354620001229190620002b3565b6006819055506006546009819055506000600a60006101000a81548160ff021916908315150217905550505050505062000374565b600080fd5b600073ffffffffffffffffffffffffffffffffffffffff82169050919050565b600062000189826200015c565b9050919050565b6200019b816200017c565b8114620001a757600080fd5b50565b600081519050620001bb8162000190565b92915050565b6000819050919050565b620001d681620001c1565b8114620001e257600080fd5b50565b600081519050620001f681620001cb565b92915050565b600080600080600060a086880312156200021b576200021a62000157565b5b60006200022b88828901620001aa565b95505060206200023e88828901620001e5565b94505060406200025188828901620001e5565b93505060606200026488828901620001e5565b92505060806200027788828901620001e5565b9150509295509295909350565b7f4e487b7100000000000000000000000000000000000000000000000000000000600052601160045260246000fd5b6000620002c082620001c1565b9150620002cd83620001c1565b9250828201905080821115620002e857620002e762000284565b5b92915050565b6000620002fb82620001c1565b91506200030883620001c1565b925082820390508181111562000323576200032262000284565b5b92915050565b60006200033682620001c1565b91506200034383620001c1565b92508282026200035381620001c1565b915082820484148315176200036d576200036c62000284565b5b5092915050565b610a7180620003846000396000f3fe6080604052600436106100c25760003560e01c8063864333741161007f578063d06fcba811610059578063d06fcba814610215578063d3642a8814610240578063db2e1eed1461026b578063eb54f9ec14610296576100c2565b806386433374146101a85780638fa8b790146101d35780639d1b464a146101ea576100c2565b806308551a53146100c75780631998aeef146100f25780631d0806ae146100fc5780633103ea62146101275780634b449cba146101525780637e8305741461017d575b600080fd5b3480156100d357600080fd5b506100dc6102c1565b6040516100e991906106eb565b60405180910390f35b6100fa6102e5565b005b34801561010857600080fd5b50610111610493565b60405161011e919061071f565b60405180910390f35b34801561013357600080fd5b5061013c610499565b604051610149919061071f565b60405180910390f35b34801561015e57600080fd5b5061016761049f565b604051610174919061071f565b60405180910390f35b34801561018957600080fd5b506101926104a5565b60405161019f919061071f565b60405180910390f35b3480156101b457600080fd5b506101bd6104ab565b6040516101ca9190610755565b60405180910390f35b3480156101df57600080fd5b506101e86104be565b005b3480156101f657600080fd5b506101ff61066c565b60405161020c919061071f565b60405180910390f35b34801561022157600080fd5b5061022a610672565b60405161023791906107cf565b60405180910390f35b34801561024c57600080fd5b50610255610698565b604051610262919061071f565b60405180910390f35b34801561027757600080fd5b5061028061069e565b60405161028d919061071f565b60405180910390f35b3480156102a257600080fd5b506102ab6106a4565b6040516102b8919061071f565b60405180910390f35b60008054906101000a900473ffffffffffffffffffffffffffffffffffffffff1681565b600a60009054906101000a900460ff1615610335576040517f08c379a000000000000000000000000000000000000000000000000000000000815260040161032c90610847565b60405180910390fd5b60095434101561037a576040517f08c379a0000000000000000000000000000000000000000000000000000000008152600401610371906108d9565b60405180910390fd5b60008054906101000a900473ffffffffffffffffffffffffffffffffffffffff1673ffffffffffffffffffffffffffffffffffffffff166108fc6009549081150290604051600060405180830381858888f193505050501580156103e2573d6000803e3d6000fd5b50600160009054906101000a900473ffffffffffffffffffffffffffffffffffffffff1673ffffffffffffffffffffffffffffffffffffffff166342842e0e30336002546040518463ffffffff1660e01b81526004016104449392919061091a565b600060405180830381600087803b15801561045e57600080fd5b505af1158015610472573d6000803e3d6000fd5b505050506001600a60006101000a81548160ff021916908315150217905550565b60065481565b60045481565b60085481565b60025481565b600a60009054906101000a900460ff1681565b60008054906101000a900473ffffffffffffffffffffffffffffffffffffffff1673ffffffffffffffffffffffffffffffffffffffff163373ffffffffffffffffffffffffffffffffffffffff161461054c576040517f08c379a0000000000000000000000000000000000000000000000000000000008152600401610543906109c3565b60405180910390fd5b600a60009054906101000a900460ff161561059c576040517f08c379a000000000000000000000000000000000000000000000000000000000815260040161059390610847565b60405180910390fd5b6001600a60006101000a81548160ff021916908315150217905550600160009054906101000a900473ffffffffffffffffffffffffffffffffffffffff1673ffffffffffffffffffffffffffffffffffffffff166342842e0e3060008054906101000a900473ffffffffffffffffffffffffffffffffffffffff166002546040518463ffffffff1660e01b815260040161063893929190610a04565b600060405180830381600087803b15801561065257600080fd5b505af1158015610666573d6000803e3d6000fd5b50505050565b60095481565b600160009054906101000a900473ffffffffffffffffffffffffffffffffffffffff1681565b60055481565b60035481565b60075481565b600073ffffffffffffffffffffffffffffffffffffffff82169050919050565b60006106d5826106aa565b9050919050565b6106e5816106ca565b82525050565b600060208201905061070060008301846106dc565b92915050565b6000819050919050565b61071981610706565b82525050565b60006020820190506107346000830184610710565b92915050565b60008115159050919050565b61074f8161073a565b82525050565b600060208201905061076a6000830184610746565b92915050565b6000819050919050565b600061079561079061078b846106aa565b610770565b6106aa565b9050919050565b60006107a78261077a565b9050919050565b60006107b98261079c565b9050919050565b6107c9816107ae565b82525050565b60006020820190506107e460008301846107c0565b92915050565b600082825260208201905092915050565b7f41756374696f6e2068617320616c726561647920656e64656400000000000000600082015250565b60006108316019836107ea565b915061083c826107fb565b602082019050919050565b6000602082019050818103600083015261086081610824565b9050919050565b7f42696420616d6f756e74206973206c657373207468616e20746865206375727260008201527f656e742070726963650000000000000000000000000000000000000000000000602082015250565b60006108c36029836107ea565b91506108ce82610867565b604082019050919050565b600060208201905081810360008301526108f2816108b6565b9050919050565b6000610904826106aa565b9050919050565b610914816108f9565b82525050565b600060608201905061092f600083018661090b565b61093c602083018561090b565b6109496040830184610710565b949350505050565b7f4f6e6c79207468652073656c6c65722063616e2063616e63656c20746865206160008201527f756374696f6e0000000000000000000000000000000000000000000000000000602082015250565b60006109ad6026836107ea565b91506109b882610951565b604082019050919050565b600060208201905081810360008301526109dc816109a0565b9050919050565b60006109ee8261079c565b9050919050565b6109fe816109e3565b82525050565b6000606082019050610a19600083018661090b565b610a2660208301856109f5565b610a336040830184610710565b94935050505056fea2646970667358221220cb86acc1b37433a8c1105c14cd50d63fd1dde8cff2449d4310b49fce73aee2a364736f6c63430008120033",
  "linkReferences": {},
  "deployedLinkReferences": {}
}