{
  "_format": "hh-sol-artifact-1",
  "contractName": "ERC721Mock",
  "sourceName": "contracts/ERC721Mock.sol",
  "abi": [
    {
      "inputs": [
        {
          "internalType": "string",
          "name": "name",
          "type": "string"
        },
        {
          "internalType": "string",
          "name": "symbol",
          "type": "string"
        }
      ],
      "stateMutability": "nonpayable",
      "type": "constructor"
    },
    {
      "anonymous": false,
      "inputs": [
        {
          "indexed": true,
          "internalType": "address",
          "name": "owner",
          "type": "address"
        },
        {
          "indexed": true,
          "internalType": "address",
          "name": "approved",
          "type": "address"
        },
        {
          "indexed": true,
          "internalType": "uint256",
          "name": "tokenId",
          "type": "uint256"
        }
      ],
      "name": "Approval",
      "type": "event"
    },
    {
      "anonymous": false,
      "inputs": [
        {
          "indexed": true,
          "internalType": "address",
          "name": "owner",
          "type": "address"
        },
        {
          "indexed": true,
          "internalType": "address",
          "name": "operator",
          "type": "address"
        },
        {
          "indexed": false,
          "internalType": "bool",
          "name": "approved",
          "type": "bool"
        }
      ],
      "name": "ApprovalForAll",
      "type": "event"
    },
    {
      "anonymous": false,
      "inputs": [
        {
          "indexed": true,
          "internalType": "address",
          "name": "from",
          "type": "address"
        },
        {
          "indexed": true,
          "internalType": "address",
          "name": "to",
          "type": "address"
        },
        {
          "indexed": true,
          "internalType": "uint256",
          "name": "tokenId",
          "type": "uint256"
        }
      ],
      "name": "Transfer",
      "type": "event"
    },
    {
      "inputs": [
        {
          "internalType": "address",
          "name": "to",
          "type": "address"
        },
        {
          "internalType": "uint256",
          "name": "tokenId",
          "type": "uint256"
        }
      ],
      "name": "approve",
      "outputs": [],
      "stateMutability": "nonpayable",
      "type": "function"
    },
    {
      "inputs": [
        {
          "internalType": "address",
          "name": "owner",
          "type": "address"
        }
      ],
      "name": "balanceOf",
      "outputs": [
        {
          "internalType": "uint256",
          "name": "",
          "type": "uint256"
        }
      ],
      "stateMutability": "view",
      "type": "function"
    },
    {
      "inputs": [
        {
          "internalType": "uint256",
          "name": "tokenId",
          "type": "uint256"
        }
      ],
      "name": "getApproved",
      "outputs": [
        {
          "internalType": "address",
          "name": "",
          "type": "address"
        }
      ],
      "stateMutability": "view",
      "type": "function"
    },
    {
      "inputs": [
        {
          "internalType": "address",
          "name": "owner",
          "type": "address"
        },
        {
          "internalType": "address",
          "name": "operator",
          "type": "address"
        }
      ],
      "name": "isApprovedForAll",
      "outputs": [
        {
          "internalType": "bool",
          "name": "",
          "type": "bool"
        }
      ],
      "stateMutability": "view",
      "type": "function"
    },
    {
      "inputs": [
        {
          "internalType": "address",
          "name": "to",
          "type": "address"
        }
      ],
      "name": "mint",
      "outputs": [
        {
          "internalType": "uint256",
          "name": "",
          "type": "uint256"
        }
      ],
      "stateMutability": "nonpayable",
      "type": "function"
    },
    {
      "inputs": [],
      "name": "name",
      "outputs": [
        {
          "internalType": "string",
          "name": "",
          "type": "string"
        }
      ],
      "stateMutability": "view",
      "type": "function"
    },
    {
      "inputs": [
        {
          "internalType": "uint256",
          "name": "tokenId",
          "type": "uint256"
        }
      ],
      "name": "ownerOf",
      "outputs": [
        {
          "internalType": "address",
          "name": "",
          "type": "address"
        }
      ],
      "stateMutability": "view",
      "type": "function"
    },
    {
      "inputs": [
        {
          "internalType": "address",
          "name": "from",
          "type": "address"
        },
        {
          "internalType": "address",
          "name": "to",
          "type": "address"
        },
        {
          "internalType": "uint256",
          "name": "tokenId",
          "type": "uint256"
        }
      ],
      "name": "safeTransferFrom",
      "outputs": [],
      "stateMutability": "nonpayable",
      "type": "function"
    },
    {
      "inputs": [
        {
          "internalType": "address",
          "name": "from",
          "type": "address"
        },
        {
          "internalType": "address",
          "name": "to",
          "type": "address"
        },
        {
          "internalType": "uint256",
          "name": "tokenId",
          "type": "uint256"
        },
        {
          "internalType": "bytes",
          "name": "data",
          "type": "bytes"
        }
      ],
      "name": "safeTransferFrom",
      "outputs": [],
      "stateMutability": "nonpayable",
      "type": "function"
    },
    {
      "inputs": [
        {
          "internalType": "address",
          "name": "operator",
          "type": "address"
        },
        {
          "internalType": "bool",
          "name": "approved",
          "type": "bool"
        }
      ],
      "name": "setApprovalForAll",
      "outputs": [],
      "stateMutability": "nonpayable",
      "type": "function"
    },
    {
      "inputs": [
        {
          "internalType": "bytes4",
          "name": "interfaceId",
          "type": "bytes4"
        }
      ],
      "name": "supportsInterface",
      "outputs": [
        {
          "internalType": "bool",
          "name": "",
          "type": "bool"
        }
      ],
      "stateMutability": "view",
      "type": "function"
    },
    {
      "inputs": [],
      "name": "symbol",
      "outputs": [
        {
          "internalType": "string",
          "name": "",
          "type": "string"
        }
      ],
      "stateMutability": "view",
      "type": "function"
    },
    {
      "inputs": [
        {
          "internalType": "uint256",
          "name": "tokenId",
          "type": "uint256"
        }
      ],
      "name": "tokenURI",
      "outputs": [
        {
          "internalType": "string",
          "name": "",
          "type": "string"
        }
      ],
      "stateMutability": "view",
      "type": "function"
    },
    {
      "inputs": [
        {
          "internalType": "address",
          "name": "from",
          "type": "address"
        },
        {
          "internalType": "address",
          "name": "to",
          "type": "address"
        },
        {
          "internalType": "uint256",
          "name": "tokenId",
          "type": "uint256"
        }
      ],
      "name": "transferFrom",
      "outputs": [],
      "stateMutability": "nonpayable",
      "type": "function"
    }
  ],
  "bytecode": "0x60806040523480156200001157600080fd5b5060405162002b4838038062002b48833981810160405281019062000037919062000219565b818181600090816200004a9190620004e9565b5080600190816200005c9190620004e9565b5050506200007b67f82bbb1a5ddc954760c01b6200008360201b60201c565b5050620005d0565b50565b6000604051905090565b600080fd5b600080fd5b600080fd5b600080fd5b6000601f19601f8301169050919050565b7f4e487b7100000000000000000000000000000000000000000000000000000000600052604160045260246000fd5b620000ef82620000a4565b810181811067ffffffffffffffff82111715620001115762000110620000b5565b5b80604052505050565b60006200012662000086565b9050620001348282620000e4565b919050565b600067ffffffffffffffff821115620001575762000156620000b5565b5b6200016282620000a4565b9050602081019050919050565b60005b838110156200018f57808201518184015260208101905062000172565b60008484015250505050565b6000620001b2620001ac8462000139565b6200011a565b905082815260208101848484011115620001d157620001d06200009f565b5b620001de8482856200016f565b509392505050565b600082601f830112620001fe57620001fd6200009a565b5b8151620002108482602086016200019b565b91505092915050565b6000806040838503121562000233576200023262000090565b5b600083015167ffffffffffffffff81111562000254576200025362000095565b5b6200026285828601620001e6565b925050602083015167ffffffffffffffff81111562000286576200028562000095565b5b6200029485828601620001e6565b9150509250929050565b600081519050919050565b7f4e487b7100000000000000000000000000000000000000000000000000000000600052602260045260246000fd5b60006002820490506001821680620002f157607f821691505b602082108103620003075762000306620002a9565b5b50919050565b60008190508160005260206000209050919050565b60006020601f8301049050919050565b600082821b905092915050565b600060088302620003717fffffffffffffffffffffffffffffffffffffffffffffffffffffffffffffffff8262000332565b6200037d868362000332565b95508019841693508086168417925050509392505050565b6000819050919050565b6000819050919050565b6000620003ca620003c4620003be8462000395565b6200039f565b62000395565b9050919050565b6000819050919050565b620003e683620003a9565b620003fe620003f582620003d1565b8484546200033f565b825550505050565b600090565b6200041562000406565b62000422818484620003db565b505050565b5b818110156200044a576200043e6000826200040b565b60018101905062000428565b5050565b601f821115620004995762000463816200030d565b6200046e8462000322565b810160208510156200047e578190505b620004966200048d8562000322565b83018262000427565b50505b505050565b600082821c905092915050565b6000620004be600019846008026200049e565b1980831691505092915050565b6000620004d98383620004ab565b9150826002028217905092915050565b620004f4826200029e565b67ffffffffffffffff81111562000510576200050f620000b5565b5b6200051c8254620002d8565b620005298282856200044e565b600060209050601f8311600181146200056157600084156200054c578287015190505b620005588582620004cb565b865550620005c8565b601f19841662000571866200030d565b60005b828110156200059b5784890151825560018201915060208501945060208101905062000574565b86831015620005bb5784890151620005b7601f891682620004ab565b8355505b6001600288020188555050505b505050505050565b61256880620005e06000396000f3fe608060405234801561001057600080fd5b50600436106100ea5760003560e01c80636a6278421161008c578063a22cb46511610066578063a22cb4651461026f578063b88d4fde1461028b578063c87b56dd146102a7578063e985e9c5146102d7576100ea565b80636a627842146101f157806370a082311461022157806395d89b4114610251576100ea565b8063095ea7b3116100c8578063095ea7b31461016d57806323b872dd1461018957806342842e0e146101a55780636352211e146101c1576100ea565b806301ffc9a7146100ef57806306fdde031461011f578063081812fc1461013d575b600080fd5b61010960048036038101906101049190611864565b610307565b60405161011691906118ac565b60405180910390f35b6101276103e9565b6040516101349190611957565b60405180910390f35b610157600480360381019061015291906119af565b61047b565b6040516101649190611a1d565b60405180910390f35b61018760048036038101906101829190611a64565b6104c1565b005b6101a3600480360381019061019e9190611aa4565b6105d8565b005b6101bf60048036038101906101ba9190611aa4565b610638565b005b6101db60048036038101906101d691906119af565b610658565b6040516101e89190611a1d565b60405180910390f35b61020b60048036038101906102069190611af7565b6106de565b6040516102189190611b33565b60405180910390f35b61023b60048036038101906102369190611af7565b6107bf565b6040516102489190611b33565b60405180910390f35b610259610876565b6040516102669190611957565b60405180910390f35b61028960048036038101906102849190611b7a565b610908565b005b6102a560048036038101906102a09190611cef565b61091e565b005b6102c160048036038101906102bc91906119af565b610980565b6040516102ce9190611957565b60405180910390f35b6102f160048036038101906102ec9190611d72565b6109e8565b6040516102fe91906118ac565b60405180910390f35b60007f80ac58cd000000000000000000000000000000000000000000000000000000007bffffffffffffffffffffffffffffffffffffffffffffffffffffffff1916827bffffffffffffffffffffffffffffffffffffffffffffffffffffffff191614806103d257507f5b5e139f000000000000000000000000000000000000000000000000000000007bffffffffffffffffffffffffffffffffffffffffffffffffffffffff1916827bffffffffffffffffffffffffffffffffffffffffffffffffffffffff1916145b806103e257506103e182610a7c565b5b9050919050565b6060600080546103f890611de1565b80601f016020809104026020016040519081016040528092919081815260200182805461042490611de1565b80156104715780601f1061044657610100808354040283529160200191610471565b820191906000526020600020905b81548152906001019060200180831161045457829003601f168201915b5050505050905090565b600061048682610ae6565b6004600083815260200190815260200160002060009054906101000a900473ffffffffffffffffffffffffffffffffffffffff169050919050565b60006104cc82610658565b90508073ffffffffffffffffffffffffffffffffffffffff168373ffffffffffffffffffffffffffffffffffffffff160361053c576040517f08c379a000000000000000000000000000000000000000000000000000000000815260040161053390611e84565b60405180910390fd5b8073ffffffffffffffffffffffffffffffffffffffff1661055b610b31565b73ffffffffffffffffffffffffffffffffffffffff16148061058a575061058981610584610b31565b6109e8565b5b6105c9576040517f08c379a00000000000000000000000000000000000000000000000000000000081526004016105c090611f16565b60405180910390fd5b6105d38383610b39565b505050565b6105e96105e3610b31565b82610bf2565b610628576040517f08c379a000000000000000000000000000000000000000000000000000000000815260040161061f90611fa8565b60405180910390fd5b610633838383610c87565b505050565b6106538383836040518060200160405280600081525061091e565b505050565b60008061066483610f80565b9050600073ffffffffffffffffffffffffffffffffffffffff168173ffffffffffffffffffffffffffffffffffffffff16036106d5576040517f08c379a00000000000000000000000000000000000000000000000000000000081526004016106cc90612014565b60405180910390fd5b80915050919050565b60006106f467740ba6811f4237d560c01b610fbd565b610708677592957b87778b6c60c01b610fbd565b61071c673a3406cd1076c46f60c01b610fbd565b6107266006610fc0565b61073a67654af3ac5a12d29b60c01b610fbd565b61074e67ee4e40f2c42d313e60c01b610fbd565b600061075a6006610fd6565b905061077067f70c77251264b92d60c01b610fbd565b61078467ee58a72b3480974f60c01b610fbd565b61078e8382610fe4565b6107a2672dd5bd67be60e56b60c01b610fbd565b6107b66741ab39340c52944e60c01b610fbd565b80915050919050565b60008073ffffffffffffffffffffffffffffffffffffffff168273ffffffffffffffffffffffffffffffffffffffff160361082f576040517f08c379a0000000000000000000000000000000000000000000000000000000008152600401610826906120a6565b60405180910390fd5b600360008373ffffffffffffffffffffffffffffffffffffffff1673ffffffffffffffffffffffffffffffffffffffff168152602001908152602001600020549050919050565b60606001805461088590611de1565b80601f01602080910402602001604051908101604052809291908181526020018280546108b190611de1565b80156108fe5780601f106108d3576101008083540402835291602001916108fe565b820191906000526020600020905b8154815290600101906020018083116108e157829003601f168201915b5050505050905090565b61091a610913610b31565b8383611201565b5050565b61092f610929610b31565b83610bf2565b61096e576040517f08c379a000000000000000000000000000000000000000000000000000000000815260040161096590611fa8565b60405180910390fd5b61097a8484848461136d565b50505050565b606061098b82610ae6565b60006109956113c9565b905060008151116109b557604051806020016040528060008152506109e0565b806109bf846113e0565b6040516020016109d0929190612102565b6040516020818303038152906040525b915050919050565b6000600560008473ffffffffffffffffffffffffffffffffffffffff1673ffffffffffffffffffffffffffffffffffffffff16815260200190815260200160002060008373ffffffffffffffffffffffffffffffffffffffff1673ffffffffffffffffffffffffffffffffffffffff16815260200190815260200160002060009054906101000a900460ff16905092915050565b60007f01ffc9a7000000000000000000000000000000000000000000000000000000007bffffffffffffffffffffffffffffffffffffffffffffffffffffffff1916827bffffffffffffffffffffffffffffffffffffffffffffffffffffffff1916149050919050565b610aef816114ae565b610b2e576040517f08c379a0000000000000000000000000000000000000000000000000000000008152600401610b2590612014565b60405180910390fd5b50565b600033905090565b816004600083815260200190815260200160002060006101000a81548173ffffffffffffffffffffffffffffffffffffffff021916908373ffffffffffffffffffffffffffffffffffffffff160217905550808273ffffffffffffffffffffffffffffffffffffffff16610bac83610658565b73ffffffffffffffffffffffffffffffffffffffff167f8c5be1e5ebec7d5bd14f71427d1e84f3dd0314c0f7b2291e5b200ac8c7c3b92560405160405180910390a45050565b600080610bfe83610658565b90508073ffffffffffffffffffffffffffffffffffffffff168473ffffffffffffffffffffffffffffffffffffffff161480610c405750610c3f81856109e8565b5b80610c7e57508373ffffffffffffffffffffffffffffffffffffffff16610c668461047b565b73ffffffffffffffffffffffffffffffffffffffff16145b91505092915050565b8273ffffffffffffffffffffffffffffffffffffffff16610ca782610658565b73ffffffffffffffffffffffffffffffffffffffff1614610cfd576040517f08c379a0000000000000000000000000000000000000000000000000000000008152600401610cf490612198565b60405180910390fd5b600073ffffffffffffffffffffffffffffffffffffffff168273ffffffffffffffffffffffffffffffffffffffff1603610d6c576040517f08c379a0000000000000000000000000000000000000000000000000000000008152600401610d639061222a565b60405180910390fd5b610d7983838360016114ef565b8273ffffffffffffffffffffffffffffffffffffffff16610d9982610658565b73ffffffffffffffffffffffffffffffffffffffff1614610def576040517f08c379a0000000000000000000000000000000000000000000000000000000008152600401610de690612198565b60405180910390fd5b6004600082815260200190815260200160002060006101000a81549073ffffffffffffffffffffffffffffffffffffffff02191690556001600360008573ffffffffffffffffffffffffffffffffffffffff1673ffffffffffffffffffffffffffffffffffffffff168152602001908152602001600020600082825403925050819055506001600360008473ffffffffffffffffffffffffffffffffffffffff1673ffffffffffffffffffffffffffffffffffffffff16815260200190815260200160002060008282540192505081905550816002600083815260200190815260200160002060006101000a81548173ffffffffffffffffffffffffffffffffffffffff021916908373ffffffffffffffffffffffffffffffffffffffff160217905550808273ffffffffffffffffffffffffffffffffffffffff168473ffffffffffffffffffffffffffffffffffffffff167fddf252ad1be2c89b69c2b068fc378daa952ba7f163c4a11628f55a4df523b3ef60405160405180910390a4610f7b83838360016114f5565b505050565b60006002600083815260200190815260200160002060009054906101000a900473ffffffffffffffffffffffffffffffffffffffff169050919050565b50565b6001816000016000828254019250508190555050565b600081600001549050919050565b600073ffffffffffffffffffffffffffffffffffffffff168273ffffffffffffffffffffffffffffffffffffffff1603611053576040517f08c379a000000000000000000000000000000000000000000000000000000000815260040161104a90612296565b60405180910390fd5b61105c816114ae565b1561109c576040517f08c379a000000000000000000000000000000000000000000000000000000000815260040161109390612302565b60405180910390fd5b6110aa6000838360016114ef565b6110b3816114ae565b156110f3576040517f08c379a00000000000000000000000000000000000000000000000000000000081526004016110ea90612302565b60405180910390fd5b6001600360008473ffffffffffffffffffffffffffffffffffffffff1673ffffffffffffffffffffffffffffffffffffffff16815260200190815260200160002060008282540192505081905550816002600083815260200190815260200160002060006101000a81548173ffffffffffffffffffffffffffffffffffffffff021916908373ffffffffffffffffffffffffffffffffffffffff160217905550808273ffffffffffffffffffffffffffffffffffffffff16600073ffffffffffffffffffffffffffffffffffffffff167fddf252ad1be2c89b69c2b068fc378daa952ba7f163c4a11628f55a4df523b3ef60405160405180910390a46111fd6000838360016114f5565b5050565b8173ffffffffffffffffffffffffffffffffffffffff168373ffffffffffffffffffffffffffffffffffffffff160361126f576040517f08c379a00000000000000000000000000000000000000000000000000000000081526004016112669061236e565b60405180910390fd5b80600560008573ffffffffffffffffffffffffffffffffffffffff1673ffffffffffffffffffffffffffffffffffffffff16815260200190815260200160002060008473ffffffffffffffffffffffffffffffffffffffff1673ffffffffffffffffffffffffffffffffffffffff16815260200190815260200160002060006101000a81548160ff0219169083151502179055508173ffffffffffffffffffffffffffffffffffffffff168373ffffffffffffffffffffffffffffffffffffffff167f17307eab39ab6107e8899845ad3d59bd9653f200f220920489ca2b5937696c318360405161136091906118ac565b60405180910390a3505050565b611378848484610c87565b611384848484846114fb565b6113c3576040517f08c379a00000000000000000000000000000000000000000000000000000000081526004016113ba90612400565b60405180910390fd5b50505050565b606060405180602001604052806000815250905090565b6060600060016113ef84611682565b01905060008167ffffffffffffffff81111561140e5761140d611bc4565b5b6040519080825280601f01601f1916602001820160405280156114405781602001600182028036833780820191505090505b509050600082602001820190505b6001156114a3578080600190039150507f3031323334353637383961626364656600000000000000000000000000000000600a86061a8153600a858161149757611496612420565b5b0494506000850361144e575b819350505050919050565b60008073ffffffffffffffffffffffffffffffffffffffff166114d083610f80565b73ffffffffffffffffffffffffffffffffffffffff1614159050919050565b50505050565b50505050565b600061151c8473ffffffffffffffffffffffffffffffffffffffff166117d5565b15611675578373ffffffffffffffffffffffffffffffffffffffff1663150b7a02611545610b31565b8786866040518563ffffffff1660e01b815260040161156794939291906124a4565b6020604051808303816000875af19250505080156115a357506040513d601f19601f820116820180604052508101906115a09190612505565b60015b611625573d80600081146115d3576040519150601f19603f3d011682016040523d82523d6000602084013e6115d8565b606091505b50600081510361161d576040517f08c379a000000000000000000000000000000000000000000000000000000000815260040161161490612400565b60405180910390fd5b805181602001fd5b63150b7a0260e01b7bffffffffffffffffffffffffffffffffffffffffffffffffffffffff1916817bffffffffffffffffffffffffffffffffffffffffffffffffffffffff19161491505061167a565b600190505b949350505050565b600080600090507a184f03e93ff9f4daa797ed6e38ed64bf6a1f01000000000000000083106116e0577a184f03e93ff9f4daa797ed6e38ed64bf6a1f01000000000000000083816116d6576116d5612420565b5b0492506040810190505b6d04ee2d6d415b85acef8100000000831061171d576d04ee2d6d415b85acef8100000000838161171357611712612420565b5b0492506020810190505b662386f26fc10000831061174c57662386f26fc10000838161174257611741612420565b5b0492506010810190505b6305f5e1008310611775576305f5e100838161176b5761176a612420565b5b0492506008810190505b612710831061179a5761271083816117905761178f612420565b5b0492506004810190505b606483106117bd57606483816117b3576117b2612420565b5b0492506002810190505b600a83106117cc576001810190505b80915050919050565b6000808273ffffffffffffffffffffffffffffffffffffffff163b119050919050565b6000604051905090565b600080fd5b600080fd5b60007fffffffff0000000000000000000000000000000000000000000000000000000082169050919050565b6118418161180c565b811461184c57600080fd5b50565b60008135905061185e81611838565b92915050565b60006020828403121561187a57611879611802565b5b60006118888482850161184f565b91505092915050565b60008115159050919050565b6118a681611891565b82525050565b60006020820190506118c1600083018461189d565b92915050565b600081519050919050565b600082825260208201905092915050565b60005b838110156119015780820151818401526020810190506118e6565b60008484015250505050565b6000601f19601f8301169050919050565b6000611929826118c7565b61193381856118d2565b93506119438185602086016118e3565b61194c8161190d565b840191505092915050565b60006020820190508181036000830152611971818461191e565b905092915050565b6000819050919050565b61198c81611979565b811461199757600080fd5b50565b6000813590506119a981611983565b92915050565b6000602082840312156119c5576119c4611802565b5b60006119d38482850161199a565b91505092915050565b600073ffffffffffffffffffffffffffffffffffffffff82169050919050565b6000611a07826119dc565b9050919050565b611a17816119fc565b82525050565b6000602082019050611a326000830184611a0e565b92915050565b611a41816119fc565b8114611a4c57600080fd5b50565b600081359050611a5e81611a38565b92915050565b60008060408385031215611a7b57611a7a611802565b5b6000611a8985828601611a4f565b9250506020611a9a8582860161199a565b9150509250929050565b600080600060608486031215611abd57611abc611802565b5b6000611acb86828701611a4f565b9350506020611adc86828701611a4f565b9250506040611aed8682870161199a565b9150509250925092565b600060208284031215611b0d57611b0c611802565b5b6000611b1b84828501611a4f565b91505092915050565b611b2d81611979565b82525050565b6000602082019050611b486000830184611b24565b92915050565b611b5781611891565b8114611b6257600080fd5b50565b600081359050611b7481611b4e565b92915050565b60008060408385031215611b9157611b90611802565b5b6000611b9f85828601611a4f565b9250506020611bb085828601611b65565b9150509250929050565b600080fd5b600080fd5b7f4e487b7100000000000000000000000000000000000000000000000000000000600052604160045260246000fd5b611bfc8261190d565b810181811067ffffffffffffffff82111715611c1b57611c1a611bc4565b5b80604052505050565b6000611c2e6117f8565b9050611c3a8282611bf3565b919050565b600067ffffffffffffffff821115611c5a57611c59611bc4565b5b611c638261190d565b9050602081019050919050565b82818337600083830152505050565b6000611c92611c8d84611c3f565b611c24565b905082815260208101848484011115611cae57611cad611bbf565b5b611cb9848285611c70565b509392505050565b600082601f830112611cd657611cd5611bba565b5b8135611ce6848260208601611c7f565b91505092915050565b60008060008060808587031215611d0957611d08611802565b5b6000611d1787828801611a4f565b9450506020611d2887828801611a4f565b9350506040611d398782880161199a565b925050606085013567ffffffffffffffff811115611d5a57611d59611807565b5b611d6687828801611cc1565b91505092959194509250565b60008060408385031215611d8957611d88611802565b5b6000611d9785828601611a4f565b9250506020611da885828601611a4f565b9150509250929050565b7f4e487b7100000000000000000000000000000000000000000000000000000000600052602260045260246000fd5b60006002820490506001821680611df957607f821691505b602082108103611e0c57611e0b611db2565b5b50919050565b7f4552433732313a20617070726f76616c20746f2063757272656e74206f776e6560008201527f7200000000000000000000000000000000000000000000000000000000000000602082015250565b6000611e6e6021836118d2565b9150611e7982611e12565b604082019050919050565b60006020820190508181036000830152611e9d81611e61565b9050919050565b7f4552433732313a20617070726f76652063616c6c6572206973206e6f7420746f60008201527f6b656e206f776e6572206f7220617070726f76656420666f7220616c6c000000602082015250565b6000611f00603d836118d2565b9150611f0b82611ea4565b604082019050919050565b60006020820190508181036000830152611f2f81611ef3565b9050919050565b7f4552433732313a2063616c6c6572206973206e6f7420746f6b656e206f776e6560008201527f72206f7220617070726f76656400000000000000000000000000000000000000602082015250565b6000611f92602d836118d2565b9150611f9d82611f36565b604082019050919050565b60006020820190508181036000830152611fc181611f85565b9050919050565b7f4552433732313a20696e76616c696420746f6b656e2049440000000000000000600082015250565b6000611ffe6018836118d2565b915061200982611fc8565b602082019050919050565b6000602082019050818103600083015261202d81611ff1565b9050919050565b7f4552433732313a2061646472657373207a65726f206973206e6f74206120766160008201527f6c6964206f776e65720000000000000000000000000000000000000000000000602082015250565b60006120906029836118d2565b915061209b82612034565b604082019050919050565b600060208201905081810360008301526120bf81612083565b9050919050565b600081905092915050565b60006120dc826118c7565b6120e681856120c6565b93506120f68185602086016118e3565b80840191505092915050565b600061210e82856120d1565b915061211a82846120d1565b91508190509392505050565b7f4552433732313a207472616e736665722066726f6d20696e636f72726563742060008201527f6f776e6572000000000000000000000000000000000000000000000000000000602082015250565b60006121826025836118d2565b915061218d82612126565b604082019050919050565b600060208201905081810360008301526121b181612175565b9050919050565b7f4552433732313a207472616e7366657220746f20746865207a65726f2061646460008201527f7265737300000000000000000000000000000000000000000000000000000000602082015250565b60006122146024836118d2565b915061221f826121b8565b604082019050919050565b6000602082019050818103600083015261224381612207565b9050919050565b7f4552433732313a206d696e7420746f20746865207a65726f2061646472657373600082015250565b60006122806020836118d2565b915061228b8261224a565b602082019050919050565b600060208201905081810360008301526122af81612273565b9050919050565b7f4552433732313a20746f6b656e20616c7265616479206d696e74656400000000600082015250565b60006122ec601c836118d2565b91506122f7826122b6565b602082019050919050565b6000602082019050818103600083015261231b816122df565b9050919050565b7f4552433732313a20617070726f766520746f2063616c6c657200000000000000600082015250565b60006123586019836118d2565b915061236382612322565b602082019050919050565b600060208201905081810360008301526123878161234b565b9050919050565b7f4552433732313a207472616e7366657220746f206e6f6e20455243373231526560008201527f63656976657220696d706c656d656e7465720000000000000000000000000000602082015250565b60006123ea6032836118d2565b91506123f58261238e565b604082019050919050565b60006020820190508181036000830152612419816123dd565b9050919050565b7f4e487b7100000000000000000000000000000000000000000000000000000000600052601260045260246000fd5b600081519050919050565b600082825260208201905092915050565b60006124768261244f565b612480818561245a565b93506124908185602086016118e3565b6124998161190d565b840191505092915050565b60006080820190506124b96000830187611a0e565b6124c66020830186611a0e565b6124d36040830185611b24565b81810360608301526124e5818461246b565b905095945050505050565b6000815190506124ff81611838565b92915050565b60006020828403121561251b5761251a611802565b5b6000612529848285016124f0565b9150509291505056fea264697066735822122044e336df768223aa934e1793990fc5d7573bfd95c0ba4e5f77e8281b25da4bf564736f6c63430008120033",
  "linkReferences": {},
  "deployedLinkReferences": {}
}